:0400000007EF00F016
:100008004582E4ED01F05BEF03F0230E266E000E4F
:10001800276E8CD0250E2C18D8B409D01FC0D9FF54
:1000280020C0DAFF2CC0DFFF1F4A202A7FD0000E35
:10003800286E21C0F6FF22C0F7FF214A222A0800B5
:10004800F5CF2CF02C50000AD8B47CD0640AD8B470
:1000580003D00D0AD8A46AD026C0D9FF27C0DAFF7A
:10006800DECF2AF0DDCF2BF0020E2626000E272247
:100078002BAE06D0030E28122A6C2B1ED8B02B2AC2
:10008800010E2C6E050E2C18D8B412D02C50020D6F
:10009800F20EF324F66E7F0EF420F76E0900F55089
:1000A8002A5C0900F5502B58D8A002D02C2AEAD790
:1000B80028C025F0030E2516D8B408D01FC0D9FFD4
:1000C80020C0DAFF2D0EDF6E1F4A202A2CC029F02F
:1000D80029D02950020DF20EF324F66E7F0EF4207B
:1000E800F76E0900F5CF15F00A00F5CF16F02AC013
:1000F80013F02BC014F0B1EC02F013C01AF014C0C6
:100108001BF0000E1D6E0A0E1C6EFEEC02F01A505B
:10011800300F2C6E1FC0D9FF20C0DAFF2CC0DFFFC4
:100128001F4A202A29062928D8A4D3D721C0F6FF98
:1001380022C0F7FF214A222A0800F5CF2CF02C50C4
:10014800D8A468D71FC0D9FF20C0DAFF000EDF6E21
:100158001200196E000E1B6E0A0E1918D8A404D0CE
:10016800000E446E432A12003F0E446406D0010E6E
:100178001B6E4450C00F186E02D044C018F0200EF9
:10018800195E000E1A6E020E1A6401D051D03F0E8D
:10019800186412D0400E185E010E1B6E8A94185017
:1001A8004009136E1B5040EC03F04350B809136E1E
:1001B8001B5040EC03F08A841550D8B41BD019505A
:1001C800030D2F0E166E7F0E176EF3501626F45081
:1001D80017221A50010DF3501626F450172216C094
:1001E800F6FF17C0F7FF0800F5CF13F01B5040ECDF
:1001F80003F01BD01950030D2F0E166E7F0E176ECD
:10020800F3501626F45017221A50010DF3501626F3
:10021800F450172216C0F6FF17C0F7FF0800F55074
:10022800FF0A136E1B5040EC03F0182A1A2AABD7AA
:10023800050E44261200186E000E1D6E0A0E1818C0
:10024800D8A404D0000E446E432A12003F0E446422
:1002580006D0010E1D6E4450C00F1B6E02D044C064
:100268001BF01850080DF3CF19F0F4CF1AF0000E58
:100278001C6E070E1C6401D041D03F0E1B6412D0C7
:10028800400E1B5E010E1D6E8A941B504009136EB2
:100298001D5040EC03F04350B809136E1D5040EC5C
:1002A80003F08A841550D8B413D01C501924166E44
:1002B800000E1A20176E2F0E1624F66E770E1720D2
:1002C800F76E0800F5CF13F01D5040EC03F013D083
:1002D8001C501924166E000E1A20176E2F0E1624A5
:1002E800F66E770E1720F76E0800F550FF0A136EAA
:1002F8001D5040EC03F01B2A1C2ABBD7080E4426CD
:100308001200196E9268000E806E0F0EC16E000EFC
:10031800936E000E816E000E956E000E836E000EB9
:10032800836E8A9A310E186EB20EE82EFED7182EFA
:10033800FCD700D08A8A8A988A908A928A94530E27
:10034800E82EFED700F0C00E136E000E40EC03F04E
:10035800C00E136E010E40EC03F0400E136E000E3B
:1003680040EC03F0400E136E010E40EC03F0B80EA3
:10037800136E000E40EC03F0B80E136E010E40EC45
:1003880003F01904D8A40ED0000E926E80683F0EB8
:10039800136E000E40EC03F03F0E136E010E40EC9E
:1003A80003F00AD03E0E136E000E40EC03F03E0E32
:1003B800136E010E40EC03F0000E7AEC02F012000E
:1003C8000600FACF01F0FBCF02F0E9CF03F0EACF45
:1003D80004F0E1CF05F0E2CF06F0D9CF07F0DACF8D
:1003E80008F0F3CF09F0F4CF0AF0F6CF0BF0F7CF0F
:1003F8000CF0F8CF0DF0F5CF0EF045C00FF046C069
:1004080010F047C011F048C012F09EBC9E9C12C06C
:1004180048F011C047F010C046F00FC045F00EC0BC
:10042800F5FF0DC0F8FF0CC0F7FF0BC0F6FF0AC0C0
:10043800F4FF09C0F3FF08C0DAFF07C0D9FF06C000
:10044800E2FF05C0E1FF04C0EAFF03C0E9FF02C004
:10045800FBFF01C0FAFF45921100010E85EC01F087
:10046800010E156E010EDAEC02F096EC03F020EEA8
:100478002FF010EE60F0130EDBCFE3FFE806FCE28E
:10048800000E0001746F000E146E000E136EE60E5F
:10049800156E74EC03F0000E146E000E136EAEECC5
:1004A80003F00001746F030E2E6E8A0E2D6E560E29
:1004B800E82EFED72D2EFCD72E2EFAD7600E1F6EF3
:1004C800000E206EFC0E216E7F0E226E74C023F08B
:1004D800246A09EC00F0600E226E000E236E010EF5
:1004E800246E010E256E86EC03F0D5D7156E000E2E
:1004F800176E070E176401D012008A94400E136E0F
:10050800000E40EC03F0400E136E010E40EC03F0B9
:100518001750B809136E000E40EC03F01750B809D5
:10052800136E010E40EC03F08A84000E166E3F0E27
:10053800166401D010D01550FF0DF3CF13F0000E44
:1005480040EC03F01550FF0DF3CF13F0010E40EC13
:1005580003F0162AECD7172ACCD7000E196E000E16
:10056800186E15501610D8B41CD0010E176E04D092
:10057800D89015361636172A16AEFAD7D8901836E8
:1005880019361550135C16501458D8A005D01550BC
:10059800135E1650145A1880D89016321532172E3A
:1005A800EDD718C013F019C014F01200176E000E22
:1005B800166E800E17601200070E156401D0120027
:1005C80017C044F015C043F03F0E176404D0400E26
:1005D800175E010E166E8A9417504009136E165056
:1005E80040EC03F01550B809136E165040EC03F0B8
:1005F8008A8412001C501D10D8B418D0010E1E6E2B
:1006080004D0D8901C361D361E2A1DAEFAD71C50B1
:100618001A5C1D501B58D8A004D01C501A5E1D50DF
:100628001B5AD8901D321C321E2EF1D71AC01AF050
:100638001BC01BF0120018D02050D8B40AD021C01B
:1006480015F01EC0D9FF1FC0DAFFDF501FEC01F004
:1006580009D021C015F01EC0D9FF1FC0DAFFDF5036
:10066800ADEC00F01E4A1F2A1EC0D9FF1FC0DAFFDA
:10067800DF50D8B41200E0D7146E1450D8B403D0A9
:100688008A808A9202D08A928A82000E956E8A9611
:1006980013C08CFF8A88080EE82EFED700F08A98CF
:1006A800080EE82EFED700F08A908A921200480EB3
:1006B800F66E070EF76E000EF86E00EE2FF010EED5
:1006C80014F00900F5CFEEFFE550E150FAE1446A75
:1006D800436A45904592000EF86E000131EF02F032
:1006E80013C0A9FF15C0A8FFA69EA69CA684F29ECB
:1006F800550EA76EAA0EA76EA682F28EA1A8FED7E7
:10070800A198120025C015F02450DAEC02F022C09E
:100718001EF023C01FF0010E206E010E216E1FEC8B
:1007280003F01200030E926E000E806E010EC26E70
:100738000D0EC16EC08E9E9C9D8CF28EF28C1200A6
:1007480078203D20000000000000000000000000AC
:100758000000000013C0A9FFA694A69EA680A8507A
:0207680012007D
:10772E00000000000000000000000000000000004B
:10773E00000000000000000000000000000000003B
:10774E00000000000000000000000000000000002B
:10775E00000000000000000000000000000000001B
:10776E00000000000000000000000000000000000B
:10777E0000000000000000000000000000000000FB
:10778E0000000000000000000000000000000000EB
:10779E0000000000000000000000000000000000DB
:1077AE0000000000000000000000000000000000CB
:1077BE0000000000000000000000000000000000BB
:1077CE0000000000000000000000000000000000AB
:1077DE00000000000000000000000000000000009B
:1077EE00000000000000000000000000000000008B
:1077FE00000000000000000000000000000000007B
:10780E00000000000000000000000000000000006A
:10781E00000000000000000000000000000000005A
:10782E0000000000000000000000065F5F06000080
:10783E00000007070007070000147F7F147F7F14E6
:10784E0000242E6B6B3A120000466630180C6662EE
:10785E0000307A4F5D377A480004070300000000BD
:10786E0000001C3E63410000000041633E1C00000E
:10787E0000082A3E1C1C3E2A0808083E3E08080046
:10788E00000080E0600000000008080808080800FA
:10789E000000006060000000006030180C0603015C
:1078AE00003E7F71594D7F3E0040427F7F40400039
:1078BE0000627359496F660000226349497F3600A2
:1078CE0000181C16537F7F5000276745457D3900F1
:1078DE00003C7E4B4979300000030371790F07009D
:1078EE0000367F49497F360000064F49693F1E002A
:1078FE000000006666000000000080E666000000E2
:10790E0000081C3663410000002424242424240093
:10791E0000004163361C080000020351590F060097
:10792E00003E7F415D5D1F1E007C7E13137E7C003A
:10793E0000417F7F49497F36001C3E6341416322EF
:10794E0000417F7F41633E1C00417F7F495D416363
:10795E0000417F7F491D0103001C3E63415173723C
:10796E00007F7F08087F7F000000417F7F4100007D
:10797E0000307040417F3F0100417F7F081C7763DC
:10798E0000417F7F41406070007F7F0E1C0E7F7F25
:10799E00007F7F060C187F7F001C3E6341633E1CF8
:1079AE0000417F7F49090F06001E3F21717F5E0057
:1079BE0000417F7F09197F6600266F4D5973320093
:1079CE000003417F7F410300007F7F40407F7F00A7
:1079DE00001F3F60603F1F00007F7F3018307F7FA9
:1079EE000043673C183C674300074F78784F070009
:1079FE0000476371594D677300007F7F414100005E
:107A0E00000103060C183060000041417F7F00002A
:107A1E0000080C0603060C080080808080808080A1
:107A2E00800000030704000000207454543C78408A
:107A3E0000417F3F4848783000387C44446C280031
:107A4E0000307848493F7F4000387C54545C180021
:107A5E0000487E7F490302000098BCA4A4F87C0471
:107A6E0000417F7F08047C780000447D7D4000004B
:107A7E000060E08080FD7D0000417F7F10386C4407
:107A8E000000417F7F400000007C7C18381C7C7811
:107A9E00007C7C04047C780000387C44447C3800F4
:107AAE000084FCF8A4243C1800183C24A4F8FC84A0
:107ABE0000447C784C041C1800485C545474240018
:107ACE000000043E7F442400003C7C40403C7C404F
:107ADE00001C3C60603C1C00003C7C7038707C3CA0
:107AEE0000446C3810386C44009CBCA0A0FC7C0098
:107AFE00004C64745C4C64000008083E7741410001
:107B0E000000000077770000004141773E08080032
:107B1E0000020301030203010070784C464C78709A
:107B2E00000E9F91B1FB4A00003A7A40407A7A40AB
:107B3E0000387C54555D19000002237555557D7B28
:107B4E0042217554547D794000217555547C7840FE
:107B5E0000207457577C784000183CA4A4E44000E1
:107B6E0000023B7D55555D1B02397D54545D190055
:107B7E0000397D55545C18000001457C7C410100A4
:107B8E00000203457D7D43020001457D7C400000DF
:107B9E0000797D1612167D790070782B2B78700087
:107BAE0000447C7C5555450000207454547C7C5414
:107BBE00547C7E0B097F7F4900327B49497B320022
:107BCE0000327A48487A320000327A4A48783000D9
:107BDE00003A7B41417B7A40003A7A4240787840C5
:107BEE00009ABAA0A0FA7A000001193C66663C1908
:107BFE00013D7D40407D3D0000183C24E7E72424F4
:107C0E0000687E7F49436620002B2FFCFC2F2B0043
:107C1E0000FFFF09092FF6F8A040C088FE7F090378
:107C2E0002207454557D79400000447D7D41000052
:107C3E00003078484A7A320000387840427A7A40EA
:107C4E00007A7A0A0A7A7000007D7D19317D7D00F6
:107C5E000000262F292F2F280000262F292F26003F
:107C6E000030784D456020000038380808080800BC
:107C7E000008080808383800004F6F3018CCEEBBEB
:107C8E00914F6F30186C76FBF90000007B7B000083
:107C9E0000081C3622081C362222361C0822361CEE
:107CAE0008AA005500AA005500AA55AA55AA55AA19
:107CBE0055DDFFAA77DDAAFF77000000FFFF000069
:107CCE0000101010FFFF000000141414FFFF00003E
:107CDE00001010FFFF00FFFF001010F0F010F0F08A
:107CEE0000141414FCFC0000001414F7F700FFFF3E
:107CFE00000000FFFF00FFFF001414F4F404FCFC6E
:107D0E000014141717101F1F0010101F1F101F1F15
:107D1E00001414141F1F000000101010F0F00000CB
:107D2E00000000001F1F1010101010101F1F101049
:107D3E0010101010F0F0101010000000FFFF1010C7
:107D4E00101010101010101010101010FFFF101047
:107D5E0010000000FFFF1414140000FFFF00FFFFCF
:107D6E001000001F1F101717140000FCFC04F4F481
:107D7E001414141717101717141414F4F404F4F43D
:107D8E00140000FFFF00F7F7141414141414141445
:107D9E00141414F7F700F7F7141414141717141417
:107DAE001410101F1F101F1F10141414F4F41414A9
:107DBE00141010F0F010F0F01000001F1F101F1F15
:107DCE00100000001F1F141414000000FCFC1414FB
:107DDE00140000F0F010F0F0101010FFFF10FFFF75
:107DEE0010141414FFFF1414141010101F1F000091
:107DFE0000000000F0F0101010FFFFFFFFFFFFFF6C
:107E0E00FFF0F0F0F0F0F0F0F0FFFFFFFF000000E9
:107E1E000000000000FFFFFFFF0F0F0F0F0F0F0FEF
:107E2E000F387C446C386C4400FCFE2A2A3E140049
:107E3E00007E7E020206060000027E7E027E7E022A
:107E4E000063775D4963630000387C447C3C040426
:107E5E000080FE7E20203E1E000406027E7C06026E
:107E6E000099BDE7E7BD9900001C3E6B496B3E1CB7
:107E7E00004C7E7301737E4C0030784A4F7D390082
:107E8E0000183C243C3C243C1898FC643C3E273DA6
:107E9E0018000000000000000000000000000000BC
:107EAE0000000000000000000000000000000000C4
:107EBE0000000000000000000000000000000000B4
:107ECE0000000000000000000000000000000000A4
:107EDE000000000000000000000000000000000094
:107EEE000000000000000000000000000000000084
:107EFE000000000000000000000000000000000074
:107F0E000000000000000000000000000000000063
:107F1E000000000000000000000000000000000053
:107F2E0000000000005C000C000C7C287C7C447C73
:107F3E00241048285408000C00384400443800200F
:107F4E001008103810804000101010004000201053
:107F5E0008384438007C006454484454281C107C73
:107F6E004C542438542004740C28542808543800D7
:107F7E00500080500010284428282844281004540B
:107F8E0008384C5C7814787C54283844447C443847
:107F9E007C54447C14043844347C107C007C0020D7
:107FAE00403C7C106C7C40407C087C7C047C7C4497
:107FBE007C7C14083844787C1468485424047C046F
:107FCE007C407C3C403C7C207C6C106C1C601C64B7
:107FDE00544C7C4400081020447C00080408808027
:107FEE008004080001000A006400E80310272564DD
:027FFE00000081
:020000040020DA
:08000000FFFFFFFFFFFFFFFF00
:020000040030CA
:0E000000000C1F1EFF8381FF0FC00FE00F409A
:00000001FF
