:040000002AEF39F0BA
:10724800010E39EC3AF098EC3AF0FFD7176A166A53
:10725800000EF86E000124EF39F0016E0150D8B429
:1072680003D08A808A9202D08A928A8295688A8616
:107278008A88080EE82EFED700F083CF02F08A989D
:10728800080EE82EFED700F08A908A92025012006B
:107298000A6E0A50D8B403D08A808A9202D08A92A1
:1072A8008A82000E956E8A9609C08CFF8A88080E1D
:1072B800E82EFED700F08A98080EE82EFED700F0D8
:1072C8008A908A9212000B6E000E0D6E070E0D64E6
:1072D80001D012008A94400E096E000E4CEC39F071
:1072E800400E096E010E4CEC39F00D50B809096ECC
:1072F800000E4CEC39F00D50B809096E010E4CEC3B
:1073080039F08A84000E0C6E3F0E0C6401D010D048
:107318000B50FF0DF3CF09F0000E4CEC39F00B5079
:10732800FF0DF3CF09F0010E4CEC39F00C2AECD725
:107338000D2ACCD7000E066E04AE06D0036C041ED0
:10734800D8B0042A010E066E02AE06D0016C021EE9
:10735800D8B0022A010E061A000E086E000E076E3B
:1073680003500410D8B41CD0010E056E04D0D89078
:1073780003360436052A04AEFAD7D89007360836FD
:107388000350015C04500258D8A005D00350015E98
:107398000450025A0780D89004320332052EEDD7E4
:1073A8000650D8B404D0076C081ED8B0082A07C005
:1073B80001F008C002F012000F6E000E116E3F0EB1
:1073C8000F6404D0400E0F5E010E116E8A940F9E5A
:1073D8000F8C0FC009F011504CEC39F00BC001F0C4
:1073E800026A000E046E080E036E9EEC39F001501E
:1073F800BF0BB809096E11504CEC39F08A84115052
:1074080031EC39F0115031EC39F0106E8A940FC01C
:1074180009F011504CEC39F00C50D8B40FD00BC017
:107428000DF0070E0D16010E0E6E0D2A02D0D89023
:107438000E360D2EFCD70E5010100FD00BC00DF0CD
:10744800070E0D16010E0E6E0D2A02D0D8900E36BC
:107458000D2EFCD70E50FF0A1014106E8A8410C02F
:1074680009F011504CEC39F012000F6E9268000EC2
:10747800806E0F0EC16E000E936E000E816E000EB0
:10748800956E000E836E000E836E8A9A310E0E6E14
:10749800B20EE82EFED70E2EFCD700D08A8A8A9824
:1074A8008A908A928A94530EE82EFED700F0C00E76
:1074B800096E000E4CEC39F0C00E096E010E4CEC52
:1074C80039F0400E096E000E4CEC39F0400E096E92
:1074D800010E4CEC39F0B80E096E000E4CEC39F088
:1074E800B80E096E010E4CEC39F00F04D8A40ED07A
:1074F800000E926E80683F0E096E000E4CEC39F05B
:107508003F0E096E010E4CEC39F00AD03E0E096EA2
:10751800000E4CEC39F03E0E096E010E4CEC39F0C1
:10752800000E67EC39F01200000E156E000E146E96
:1075380015BE08D0155005E1800E145CD8B01200B5
:1075480001D01200000E136E000E126E13BE08D08A
:10755800135005E1400E125CD8B0E3D001D0E1D061
:1075680013BE0ED0135004E1030E125CD8A008D04D
:1075780013BE16D0135004E1050E125CD8A010D02B
:1075880013BE16D0135004E13E0E125CD8A010D0E2
:1075980013BE06D013500CE1400E125CD8B008D0D0
:1075A80012C00BF0010E0C6E1450E0EC39F049D00B
:1075B80015BE08D015BE16D0155004E1020E145C95
:1075C800D8A010D015BE1ED0155004E17E0E145C54
:1075D800D8A018D015BE06D0155014E1800E145C42
:1075E800D8B010D013BE0ED0135004E1050E125CB3
:1075F800D8A008D012C00BF0010E0C6E1450E0ECAD
:1076080039F01FD015BE1DD0155004E15B0E145C77
:10761800D8A017D015BE06D0155013E15D0E145C26
:10762800D8B00FD013BE0DD0135004E1050E125C74
:10763800D8A007D012C00BF0010E0C6E1450E0EC6D
:1076480039F00A0E14181510D8B428D0130E1418CF
:107658001510D8B423D01C0E14181510D8B41ED089
:10766800250E14181510D8B419D02E0E141815108C
:10767800D8B414D0370E14181510D8B40FD0400E43
:1076880014181510D8B40AD0490E14181510D8B407
:1076980005D0520E14181510D8A40FD013BE0DD053
:1076A800135004E1050E125CD8A007D012C00BF0ED
:1076B800010E0C6E1450E0EC39F0110E1218131074
:1076C800D8B419D01A0E12181310D8B414D0230E27
:1076D80012181310D8B40FD02C0E12181310D8B4D7
:1076E8000AD0350E12181310D8B405D03E0E121851
:1076F8001310D8A40FD015BE06D015500BE15C0EA0
:10770800145CD8B007D012C00BF0010E0C6E1450E8
:10771800E0EC39F0124A132A13BE22D7135001E1C4
:1077280019D7144A152A15BE0DD7155001E104D7EB
:10773800120000000000000000000000000000002F
:107748000000000000000000000000000000000031
:107758000000000000000000000000000000000021
:107768000000000000000000000000000000000011
:107778000000000000000000000000000000000001
:1077880000000000000000000000000000000000F1
:1077980000000000000000000000000000000000E1
:1077A80000000000000000000000000000000000D1
:1077B80000000000000000000000000000000000C1
:1077C80000000000000000000000000000000000B1
:1077D80000000000000000000000000000000000A1
:1077E8000000000000000000000000000000000091
:1077F8000000000000000000000000000000000081
:107808000000000000000000000000000000000070
:107818000000000000000000000000000000000060
:107828000000000000000000000000000000000050
:10783800000000000000000000000000065F5F0676
:107848000000000007070007070000147F7F147F6F
:107858007F1400242E6B6B3A120000466630180C19
:10786800666200307A4F5D377A48000407030000EB
:10787800000000001C3E63410000000041633E1C04
:10788800000000082A3E1C1C3E2A0808083E3E0844
:107898000800000080E060000000000808080808F0
:1078A80008000000006060000000006030180C064E
:1078B8000301003E7F71594D7F3E0040427F7F406B
:1078C800400000627359496F660000226349497F8E
:1078D800360000181C16537F7F5000276745457DEA
:1078E8003900003C7E4B4979300000030371790F61
:1078F800070000367F49497F360000064F49693F37
:107908001E000000006666000000000080E66600B9
:10791800000000081C3663410000002424242424AD
:10792800240000004163361C080000020351590F6F
:107938000600003E7F415D5D1F1E007C7E13137EA6
:107948007C0000417F7F49497F36001C3E634141EE
:10795800632200417F7F41633E1C00417F7F495D78
:10796800416300417F7F491D0103001C3E63415173
:107978007372007F7F08087F7F000000417F7F418E
:10798800000000307040417F3F0100417F7F081CAC
:10799800776300417F7F41406070007F7F0E1C0E3F
:1079A8007F7F007F7F060C187F7F001C3E6341634A
:1079B8003E1C00417F7F49090F06001E3F21717F51
:1079C8005E0000417F7F09197F6600266F4D59735D
:1079D80032000003417F7F410300007F7F40407FEA
:1079E8007F00001F3F60603F1F00007F7F3018301E
:1079F8007F7F0043673C183C674300074F78784F08
:107A0800070000476371594D677300007F7F41414C
:107A18000000000103060C183060000041417F7F20
:107A2800000000080C0603060C0800808080808097
:107A38008080800000030704000000207454543C38
:107A4800784000417F3F4848783000387C44446C97
:107A5800280000307848493F7F4000387C54545C07
:107A6800180000487E7F490302000098BCA4A4F8CF
:107A78007C0400417F7F08047C780000447D7D40C1
:107A880000000060E08080FD7D0000417F7F1038AD
:107A98006C440000417F7F400000007C7C18381C4B
:107AA8007C78007C7C04047C780000387C44447C2E
:107AB80038000084FCF8A4243C1800183C24A4F8DE
:107AC800FC8400447C784C041C1800485C545474B2
:107AD80024000000043E7F442400003C7C40403CDD
:107AE8007C40001C3C60603C1C00003C7C70387092
:107AF8007C3C00446C3810386C44009CBCA0A0FC52
:107B08007C00004C64745C4C64000008083E7741BB
:107B180041000000000077770000004141773E08EF
:107B2800080000020301030203010070784C464C70
:107B38007870000E9F91B1FB4A00003A7A40407A73
:107B48007A4000387C54555D19000002237555555C
:107B58007D7B42217554547D794000217555547CB4
:107B6800784000207457577C784000183CA4A4E45F
:107B7800400000023B7D55555D1B02397D54545D24
:107B8800190000397D55545C18000001457C7C4182
:107B98000100000203457D7D43020001457D7C40D4
:107BA800000000797D1612167D790070782B2B78ED
:107BB800700000447C7C5555450000207454547C6A
:107BC8007C54547C7E0B097F7F4900327B49497B7A
:107BD800320000327A48487A320000327A4A4878CD
:107BE8003000003A7B41417B7A40003A7A42407843
:107BF8007840009ABAA0A0FA7A000001193C66669B
:107C08003C19013D7D40407D3D0000183C24E7E7DC
:107C1800242400687E7F49436620002B2FFCFC2F1C
:107C28002B0000FFFF09092FF6F8A040C088FE7F4F
:107C3800090302207454557D79400000447D7D413C
:107C48000000003078484A7A320000387840427A9A
:107C58007A40007A7A0A0A7A7000007D7D19317DAF
:107C68007D000000262F292F2F280000262F292FDE
:107C780026000030784D4560200000383808080894
:107C880008000008080808383800004F6F3018CC82
:107C9800EEBB914F6F30186C76FBF90000007B7BD0
:107CA800000000081C3622081C362222361C082236
:107CB800361C08AA005500AA005500AA55AA55AABC
:107CC80055AA55DDFFAA77DDAAFF77000000FFFF60
:107CD800000000101010FFFF000000141414FFFF34
:107CE8000000001010FFFF00FFFF001010F0F01060
:107CF800F0F000141414FCFC0000001414F7F70052
:107D0800FFFF000000FFFF00FFFF001414F4F4045D
:107D1800FCFC0014141717101F1F0010101F1F1051
:107D28001F1F001414141F1F000000101010F0F083
:107D38000000000000001F1F1010101010101F1F5F
:107D4800101010101010F0F0101010000000FFFFBD
:107D58001010101010101010101010101010FFFF3D
:107D6800101010000000FFFF1414140000FFFF00A3
:107D7800FFFF1000001F1F101717140000FCFC0461
:107D8800F4F41414141717101717141414F4F40433
:107D9800F4F4140000FFFF00F7F71414141414147B
:107DA8001414141414F7F700F7F71414141417170D
:107DB80014141410101F1F101F1F10141414F4F49F
:107DC8001414141010F0F010F0F01000001F1F1021
:107DD8001F1F100000001F1F141414000000FCFCDB
:107DE8001414140000F0F010F0F0101010FFFF1041
:107DF800FFFF10141414FFFF1414141010101F1F89
:107E0800000000000000F0F0101010FFFFFFFFFF5F
:107E1800FFFFFFF0F0F0F0F0F0F0F0FFFFFFFF00E1
:107E280000000000000000FFFFFFFF0F0F0F0F0F03
:107E38000F0F0F387C446C386C4400FCFE2A2A3E35
:107E48001400007E7E020206060000027E7E027E8C
:107E58007E020063775D4963630000387C447C3CA4
:107E680004040080FE7E20203E1E000406027E7C64
:107E780006020099BDE7E7BD9900001C3E6B496BFF
:107E88003E1C004C7E7301737E4C0030784A4F7D57
:107E9800390000183C243C3C243C1898FC643C3EC7
:107EA800273D18000000000000000000000000004E
:107EB80000000000000000000000000000000000BA
:107EC80000000000000000000000000000000000AA
:107ED800000000000000000000000000000000009A
:107EE800000000000000000000000000000000008A
:107EF800000000000000000000000000000000007A
:107F08000000000000000000000000000000000069
:107F18000000000000000000000000000000000059
:107F28000000000000000000000000000000000049
:107F3800000000000000005C000C000C7C287C7C29
:107F4800447C241048285408000C00384400443865
:107F58000020100810381080400010101000400059
:107F6800201008384438007C006454484454281CC5
:107F7800107C4C542438542004740C285428085479
:107F88003800500080500010284428282844281021
:107F9800045408384C5C7814787C54283844447C61
:107FA80044387C54447C14043844347C107C007C71
:107FB8000020403C7C106C7C40407C087C7C047C2D
:107FC8007C447C7C14083844787C14684854240425
:107FD8007C047C407C3C403C7C207C6C106C1C60AD
:107FE8001C64544C7C4400081020447C000804089D
:077FF80080808004080000F6
:020000040020DA
:08000000FFFFFFFFFFFFFFFF00
:020000040030CA
:0E000000000C1F1FFF8381FF0FC00FE00F4099
:00000001FF
