:0400000007EF00F016
:100008003E8240ED01F080EF02F0196E000E1B6E8B
:100018000A0E1918D8A404D0000E3D6E3C2A12000E
:100028003F0E3D6406D0010E1B6E3D50C00F186E8A
:1000380002D03DC018F0200E195E000E1A6E020E96
:100048001A6401D051D03F0E186412D0400E185EC9
:10005800010E1B6E8A9418504009136E1B5065ECF4
:1000680002F03C50B809136E1B5065EC02F08A840C
:100078001550D8B41BD01950030D330E166E7F0ED1
:10008800176EF3501626F45017221A50010DF3502C
:100098001626F450172216C0F6FF17C0F7FF0800FF
:1000A800F5CF13F01B5065EC02F01BD01950030D6F
:1000B800330E166E7F0E176EF3501626F450172265
:1000C8001A50010DF3501626F450172216C0F6FFE9
:1000D80017C0F7FF0800F550FF0A136E1B5065ECB8
:1000E80002F0182A1A2AABD7050E3D261200186E00
:1000F800000E1D6E0A0E1818D8A404D0000E3D6E0E
:100108003C2A12003F0E3D6406D0010E1D6E3D5084
:10011800C00F1B6E02D03DC01BF01850080DF3CF66
:1001280019F0F4CF1AF0000E1C6E070E1C6401D0F3
:1001380041D03F0E1B6412D0400E1B5E010E1D6E97
:100148008A941B504009136E1D5065EC02F03C5018
:10015800B809136E1D5065EC02F08A841550D8B4A6
:1001680013D01C501924166E000E1A20176E330E69
:100178001624F66E770E1720F76E0800F5CF13F0E9
:100188001D5065EC02F013D01C501924166E000E99
:100198001A20176E330E1624F66E770E1720F76E98
:1001A8000800F550FF0A136E1D5065EC02F01B2A7B
:1001B8001C2ABBD7080E3D261200196E9268000E45
:1001C800806E0F0EC16E000E936E000E816E000ED3
:1001D800956E000E836E000E836E8A9A310E186E2D
:1001E800B20EE82EFED7182EFCD700D08A8A8A983D
:1001F8008A908A928A94530EE82EFED700F0C00E99
:10020800136E000E65EC02F0C00E136E010E65EC65
:1002180002F0400E136E000E65EC02F0400E136EF5
:10022800010E65EC02F0B80E136E000E65EC02F0DC
:10023800B80E136E010E65EC02F01904D8A40ED0A6
:10024800000E926E80683F0E136E000E65EC02F091
:100258003F0E136E010E65EC02F00AD03E0E136ECF
:10026800000E65EC02F03E0E136E010E65EC02F016
:10027800000E0AEC02F012000600FACF01F0FBCFE4
:1002880002F0E9CF03F0EACF04F0E1CF05F0E2CFC6
:1002980006F0D9CF07F0DACF08F0F3CF09F0F4CFA2
:1002A8000AF0F6CF0BF0F7CF0CF0F8CF0DF0F5CF42
:1002B8000EF03EC00FF03FC010F040C011F041C03A
:1002C80012F09EBC9E9C12C041F011C040F010C0BC
:1002D8003FF00FC03EF00EC0F5FF0DC0F8FF0CC098
:1002E800F7FF0BC0F6FF0AC0F4FF09C0F3FF08C010
:1002F800DAFF07C0D9FF06C0E2FF05C0E1FF04C06E
:10030800EAFF03C0E9FF02C0FBFF01C0FAFF3E920B
:1003180011002ED02050D8B415D021C015F01EC021
:10032800F6FF1FC0F7FFF86A070EF76403D008004E
:10033800F55005D0F6CFE9FFF7CFEAFFEF507BEC99
:1003480000F014D021C015F01EC0F6FF1FC0F7FF43
:10035800F86A070EF76403D00800F55005D0F6CF09
:10036800E9FFF7CFEAFFEF5009EC00F01E4A1F2A19
:100378001EC0F6FF1FC0F7FFF86A070EF76403D028
:100388000800F55005D0F6CFE9FFF7CFEAFFEF50A8
:100398000009D8B41200BED7010EE1EC00F0010E3E
:1003A800156E010E41EC02F0BDEC02F020EE28F0D3
:1003B80010EE60F0130EDBCFE3FFE806FCE2000E60
:1003C800146E830E136E99EC02F0F60E226E7F0EF9
:1003D800236E010E246E010E256EADEC02F0150E93
:1003E800276E4B0E266EBE0EE82EFED7262EFCD7A5
:1003F800272EFAD700D0600E226E000E236E010E53
:10040800246E010E256EADEC02F0D9D7156E000EE4
:10041800176E070E176401D012008A94400E136EEF
:10042800000E65EC02F0400E136E010E65EC02F052
:100438001750B809136E000E65EC02F01750B80992
:10044800136E010E65EC02F08A84000E166E3F0EE4
:10045800166401D010D01550FF0DF3CF13F0000E25
:1004680065EC02F01550FF0DF3CF13F0010E65ECAB
:1004780002F0162AECD7172ACCD7176E000E166E84
:10048800800E17601200070E156401D0120017C005
:100498003DF015C03CF03F0E176404D0400E175EC7
:1004A800010E166E8A9417504009136E165065ECAB
:1004B80002F01550B809136E165065EC02F08A84E4
:1004C8001200146E1450D8B403D08A808A9202D0D5
:1004D8008A928A82000E956E8A9613C08CFF8A884B
:1004E800080EE82EFED700F08A98080EE82EFED7F0
:1004F80000F08A908A921200960EF66E050EF76E3C
:10050800000EF86E00EE28F010EE14F00900F5CF9A
:10051800EEFFE550E150FAE13D6A3C6A3E903E92BA
:10052800000EF86E0001D0EF01F09494BD86BD84F2
:10053800F28EF28C000ECC6E9D829E92CA92CA8078
:1005480013C0CBFF000EBE6EBD9ABD88D5EC02F07D
:10055800120025C015F0245041EC02F022C01EF014
:1005680023C01FF0010E206E010E216E8DEC01F0EC
:100578001200030E926E000E806E010EC26E0D0EFA
:10058800C16EC08E9E9C9D8CF28EF28C1200626CA5
:100598006176626C6F616E7A660000000000000090
:0605A8000000CA841200ED
:107732000000000000000000000000000000000047
:107742000000000000000000000000000000000037
:107752000000000000000000000000000000000027
:107762000000000000000000000000000000000017
:107772000000000000000000000000000000000007
:1077820000000000000000000000000000000000F7
:1077920000000000000000000000000000000000E7
:1077A20000000000000000000000000000000000D7
:1077B20000000000000000000000000000000000C7
:1077C20000000000000000000000000000000000B7
:1077D20000000000000000000000000000000000A7
:1077E2000000000000000000000000000000000097
:1077F2000000000000000000000000000000000087
:107802000000000000000000000000000000000076
:107812000000000000000000000000000000000066
:107822000000000000000000000000000000000056
:1078320000000000000000000000065F5F0600007C
:10784200000007070007070000147F7F147F7F14E2
:1078520000242E6B6B3A120000466630180C6662EA
:1078620000307A4F5D377A480004070300000000B9
:1078720000001C3E63410000000041633E1C00000A
:1078820000082A3E1C1C3E2A0808083E3E08080042
:10789200000080E0600000000008080808080800F6
:1078A2000000006060000000006030180C06030158
:1078B200003E7F71594D7F3E0040427F7F40400035
:1078C20000627359496F660000226349497F36009E
:1078D20000181C16537F7F5000276745457D3900ED
:1078E200003C7E4B4979300000030371790F070099
:1078F20000367F49497F360000064F49693F1E0026
:107902000000006666000000000080E666000000DD
:1079120000081C366341000000242424242424008F
:1079220000004163361C080000020351590F060093
:10793200003E7F415D5D1F1E007C7E13137E7C0036
:1079420000417F7F49497F36001C3E6341416322EB
:1079520000417F7F41633E1C00417F7F495D41635F
:1079620000417F7F491D0103001C3E634151737238
:10797200007F7F08087F7F000000417F7F41000079
:1079820000307040417F3F0100417F7F081C7763D8
:1079920000417F7F41406070007F7F0E1C0E7F7F21
:1079A200007F7F060C187F7F001C3E6341633E1CF4
:1079B20000417F7F49090F06001E3F21717F5E0053
:1079C20000417F7F09197F6600266F4D597332008F
:1079D2000003417F7F410300007F7F40407F7F00A3
:1079E200001F3F60603F1F00007F7F3018307F7FA5
:1079F2000043673C183C674300074F78784F070005
:107A020000476371594D677300007F7F4141000059
:107A1200000103060C183060000041417F7F000026
:107A220000080C0603060C0800808080808080809D
:107A3200800000030704000000207454543C784086
:107A420000417F3F4848783000387C44446C28002D
:107A520000307848493F7F4000387C54545C18001D
:107A620000487E7F490302000098BCA4A4F87C046D
:107A720000417F7F08047C780000447D7D40000047
:107A82000060E08080FD7D0000417F7F10386C4403
:107A92000000417F7F400000007C7C18381C7C780D
:107AA200007C7C04047C780000387C44447C3800F0
:107AB2000084FCF8A4243C1800183C24A4F8FC849C
:107AC20000447C784C041C1800485C545474240014
:107AD2000000043E7F442400003C7C40403C7C404B
:107AE200001C3C60603C1C00003C7C7038707C3C9C
:107AF20000446C3810386C44009CBCA0A0FC7C0094
:107B0200004C64745C4C64000008083E77414100FC
:107B12000000000077770000004141773E0808002E
:107B220000020301030203010070784C464C787096
:107B3200000E9F91B1FB4A00003A7A40407A7A40A7
:107B420000387C54555D19000002237555557D7B24
:107B520042217554547D794000217555547C7840FA
:107B620000207457577C784000183CA4A4E44000DD
:107B720000023B7D55555D1B02397D54545D190051
:107B820000397D55545C18000001457C7C410100A0
:107B9200000203457D7D43020001457D7C400000DB
:107BA20000797D1612167D790070782B2B78700083
:107BB20000447C7C5555450000207454547C7C5410
:107BC200547C7E0B097F7F4900327B49497B32001E
:107BD20000327A48487A320000327A4A48783000D5
:107BE200003A7B41417B7A40003A7A4240787840C1
:107BF200009ABAA0A0FA7A000001193C66663C1904
:107C0200013D7D40407D3D0000183C24E7E72424EF
:107C120000687E7F49436620002B2FFCFC2F2B003F
:107C220000FFFF09092FF6F8A040C088FE7F090374
:107C320002207454557D79400000447D7D4100004E
:107C4200003078484A7A320000387840427A7A40E6
:107C5200007A7A0A0A7A7000007D7D19317D7D00F2
:107C62000000262F292F2F280000262F292F26003B
:107C72000030784D456020000038380808080800B8
:107C82000008080808383800004F6F3018CCEEBBE7
:107C9200914F6F30186C76FBF90000007B7B00007F
:107CA20000081C3622081C362222361C0822361CEA
:107CB20008AA005500AA005500AA55AA55AA55AA15
:107CC20055DDFFAA77DDAAFF77000000FFFF000065
:107CD20000101010FFFF000000141414FFFF00003A
:107CE200001010FFFF00FFFF001010F0F010F0F086
:107CF20000141414FCFC0000001414F7F700FFFF3A
:107D0200000000FFFF00FFFF001414F4F404FCFC69
:107D12000014141717101F1F0010101F1F101F1F11
:107D2200001414141F1F000000101010F0F00000C7
:107D3200000000001F1F1010101010101F1F101045
:107D420010101010F0F0101010000000FFFF1010C3
:107D5200101010101010101010101010FFFF101043
:107D620010000000FFFF1414140000FFFF00FFFFCB
:107D72001000001F1F101717140000FCFC04F4F47D
:107D82001414141717101717141414F4F404F4F439
:107D9200140000FFFF00F7F7141414141414141441
:107DA200141414F7F700F7F7141414141717141413
:107DB2001410101F1F101F1F10141414F4F41414A5
:107DC200141010F0F010F0F01000001F1F101F1F11
:107DD200100000001F1F141414000000FCFC1414F7
:107DE200140000F0F010F0F0101010FFFF10FFFF71
:107DF20010141414FFFF1414141010101F1F00008D
:107E020000000000F0F0101010FFFFFFFFFFFFFF67
:107E1200FFF0F0F0F0F0F0F0F0FFFFFFFF000000E5
:107E22000000000000FFFFFFFF0F0F0F0F0F0F0FEB
:107E32000F387C446C386C4400FCFE2A2A3E140045
:107E4200007E7E020206060000027E7E027E7E0226
:107E52000063775D4963630000387C447C3C040422
:107E62000080FE7E20203E1E000406027E7C06026A
:107E72000099BDE7E7BD9900001C3E6B496B3E1CB3
:107E8200004C7E7301737E4C0030784A4F7D39007E
:107E920000183C243C3C243C1898FC643C3E273DA2
:107EA20018000000000000000000000000000000B8
:107EB20000000000000000000000000000000000C0
:107EC20000000000000000000000000000000000B0
:107ED20000000000000000000000000000000000A0
:107EE2000000000000000000000000000000000090
:107EF2000000000000000000000000000000000080
:107F0200000000000000000000000000000000006F
:107F1200000000000000000000000000000000005F
:107F2200000000000000000000000000000000004F
:107F320000000000005C000C000C7C287C7C447C6F
:107F4200241048285408000C00384400443800200B
:107F5200100810381080400010101000400020104F
:107F620008384438007C006454484454281C107C6F
:107F72004C542438542004740C28542808543800D3
:107F82005000805000102844282828442810045407
:107F920008384C5C7814787C54283844447C443843
:107FA2007C54447C14043844347C107C007C0020D3
:107FB200403C7C106C7C40407C087C7C047C7C4493
:107FC2007C7C14083844787C1468485424047C046B
:107FD2007C407C3C403C7C207C6C106C1C601C64B3
:107FE200544C7C4400081020447C00080408808023
:0D7FF20080040800776169742E2E2E0000B7
:020000040020DA
:08000000FFFFFFFFFFFFFFFF00
:020000040030CA
:0E000000000C1F1EFF8381FF0FC00FE00F409A
:00000001FF
