:0400000007EF00F016
:100008003C8240ED01F0ABEF02F0196E000E1B6E62
:100018000A0E1918D8A404D0000E3B6E3A2A120012
:100028003F0E3B6406D0010E1B6E3B50C00F186E8E
:1000380002D03BC018F0200E195E000E1A6E020E98
:100048001A6401D051D03F0E186412D0400E185EC9
:10005800010E1B6E8A9418504009136E1B5090ECC9
:1000680002F03A50B809136E1B5090EC02F08A84E3
:100078001550D8B41BD01950030D3B0E166E7F0EC9
:10008800176EF3501626F45017221A50010DF3502C
:100098001626F450172216C0F6FF17C0F7FF0800FF
:1000A800F5CF13F01B5090EC02F01BD01950030D44
:1000B8003B0E166E7F0E176EF3501626F45017225D
:1000C8001A50010DF3501626F450172216C0F6FFE9
:1000D80017C0F7FF0800F550FF0A136E1B5090EC8D
:1000E80002F0182A1A2AABD7050E3B261200186E02
:1000F800000E1D6E0A0E1818D8A404D0000E3B6E10
:100108003A2A12003F0E3B6406D0010E1D6E3B508A
:10011800C00F1B6E02D03BC01BF01850080DF3CF68
:1001280019F0F4CF1AF0000E1C6E070E1C6401D0F3
:1001380041D03F0E1B6412D0400E1B5E010E1D6E97
:100148008A941B504009136E1D5090EC02F03A50EF
:10015800B809136E1D5090EC02F08A841550D8B47B
:1001680013D01C501924166E000E1A20176E3B0E61
:100178001624F66E770E1720F76E0800F5CF13F0E9
:100188001D5090EC02F013D01C501924166E000E6E
:100198001A20176E3B0E1624F66E770E1720F76E90
:1001A8000800F550FF0A136E1D5090EC02F01B2A50
:1001B8001C2ABBD7080E3B261200196E9268000E47
:1001C800806E0F0EC16E000E936E000E816E000ED3
:1001D800956E000E836E000E836E8A9A310E186E2D
:1001E800B20EE82EFED7182EFCD700D08A8A8A983D
:1001F8008A908A928A94530EE82EFED700F0C00E99
:10020800136E000E90EC02F0C00E136E010E90EC0F
:1002180002F0400E136E000E90EC02F0400E136ECA
:10022800010E90EC02F0B80E136E000E90EC02F086
:10023800B80E136E010E90EC02F01904D8A40ED07B
:10024800000E926E80683F0E136E000E90EC02F066
:100258003F0E136E010E90EC02F00AD03E0E136EA4
:10026800000E90EC02F03E0E136E010E90EC02F0C0
:10027800000ECFEC01F012000600FACF01F0FBCF20
:1002880002F0E9CF03F0EACF04F0E1CF05F0E2CFC6
:1002980006F0D9CF07F0DACF08F0F3CF09F0F4CFA2
:1002A8000AF0F6CF0BF0F7CF0CF0F8CF0DF0F5CF42
:1002B8000EF03CC00FF03DC010F03EC011F03FC042
:1002C80012F09EBC9E9C12C03FF011C03EF010C0C0
:1002D8003DF00FC03CF00EC0F5FF0DC0F8FF0CC09C
:1002E800F7FF0BC0F6FF0AC0F4FF09C0F3FF08C010
:1002F800DAFF07C0D9FF06C0E2FF05C0E1FF04C06E
:10030800EAFF03C0E9FF02C0FBFF01C0FAFF3C920D
:100318001100000E186E16AE06D0156C161ED8B059
:10032800162A010E186E14AE06D0136C141ED8B01F
:10033800142A010E181A000E1A6E000E196E1550A6
:100348001610D8B41CD0010E176E04D0D8901536EC
:100358001636172A16AEFAD7D89019361A36155007
:10036800135C16501458D8A005D01550135E1650BB
:10037800145A1980D89016321532172EEDD7185006
:10038800D8B404D0196C1A1ED8B01A2A19C013F0A0
:100398001AC014F01200156E000E176E070E1764BF
:1003A80001D012008A94400E136E000E90EC02F0F9
:1003B800400E136E010E90EC02F01750B809136E40
:1003C800000E90EC02F01750B809136E010E90EC75
:1003D80002F08A84000E166E3F0E166401D010D00B
:1003E8001550FF0DF3CF13F0000E90EC02F01550EE
:1003F800FF0DF3CF13F0010E90EC02F0162AECD7A4
:10040800172ACCD7010EE1EC00F0010E156E010E93
:100418002CEC02F020EE26F010EE60F0130EDBCF8D
:10042800E3FFE806FCE271EC02F01CBEFCD71C50AE
:1004380004E1060E1B5CD8A0F6D7600E226E000EF3
:10044800236E010E246E010E256EC4EC02F0EBD76C
:10045800176E000E166E800E17601200070E1564D8
:1004680001D0120017C03BF015C03AF03F0E1764D8
:1004780004D0400E175E010E166E8A94175040097C
:10048800136E165090EC02F01550B809136E165002
:1004980090EC02F08A84120018D02050D8B40AD008
:1004A80021C015F01EC0D9FF1FC0DAFFDF507BEC5A
:1004B80000F009D021C015F01EC0D9FF1FC0DAFF17
:1004C800DF5009EC00F01E4A1F2A1EC0D9FF1FC0CA
:1004D800DAFFDF50D8B41200E0D7EAEC02F013C01C
:1004E8001FF014C020F01FC01DF020C01EF0070E22
:1004F800D8901D361E36E82EFBD71DC013F01EC03F
:1005080014F0040E166E000E156E8DEC01F013C07B
:100518001BF014C01CF01200146E1450D8B403D091
:100528008A808A9202D08A928A82000E956E8A9672
:1005380013C08CFF8A88080EE82EFED700F08A9830
:10054800080EE82EFED700F08A908A921200C00E9C
:10055800F66E050EF76E000EF86E00EE26F010EE41
:1005680014F00900F5CFEEFFE550E150FAE13B6ADF
:100578003A6A3C903C92000EF86E000106EF02F0D9
:1005880025C015F024502CEC02F022C01EF023C028
:100598001FF0010E206E010E216E50EC02F01200C9
:1005A800030E926E010EC26E3E0EC16EC08E9E9CF0
:1005B8009D8CF28EF28C120063686175737365749A
:1005C800746500000000000000000000D4EC02F098
:1005D800C282C2B2FED7C3CF13F0C4CF14F0120048
:10773A00000000000000000000000000000000003F
:10774A00000000000000000000000000000000002F
:10775A00000000000000000000000000000000001F
:10776A00000000000000000000000000000000000F
:10777A0000000000000000000000000000000000FF
:10778A0000000000000000000000000000000000EF
:10779A0000000000000000000000000000000000DF
:1077AA0000000000000000000000000000000000CF
:1077BA0000000000000000000000000000000000BF
:1077CA0000000000000000000000000000000000AF
:1077DA00000000000000000000000000000000009F
:1077EA00000000000000000000000000000000008F
:1077FA00000000000000000000000000000000007F
:10780A00000000000000000000000000000000006E
:10781A00000000000000000000000000000000005E
:10782A00000000000000000000000000000000004E
:10783A0000000000000000000000065F5F06000074
:10784A00000007070007070000147F7F147F7F14DA
:10785A0000242E6B6B3A120000466630180C6662E2
:10786A0000307A4F5D377A480004070300000000B1
:10787A0000001C3E63410000000041633E1C000002
:10788A0000082A3E1C1C3E2A0808083E3E0808003A
:10789A00000080E0600000000008080808080800EE
:1078AA000000006060000000006030180C06030150
:1078BA00003E7F71594D7F3E0040427F7F4040002D
:1078CA0000627359496F660000226349497F360096
:1078DA0000181C16537F7F5000276745457D3900E5
:1078EA00003C7E4B4979300000030371790F070091
:1078FA0000367F49497F360000064F49693F1E001E
:10790A000000006666000000000080E666000000D5
:10791A0000081C3663410000002424242424240087
:10792A0000004163361C080000020351590F06008B
:10793A00003E7F415D5D1F1E007C7E13137E7C002E
:10794A0000417F7F49497F36001C3E6341416322E3
:10795A0000417F7F41633E1C00417F7F495D416357
:10796A0000417F7F491D0103001C3E634151737230
:10797A00007F7F08087F7F000000417F7F41000071
:10798A0000307040417F3F0100417F7F081C7763D0
:10799A0000417F7F41406070007F7F0E1C0E7F7F19
:1079AA00007F7F060C187F7F001C3E6341633E1CEC
:1079BA0000417F7F49090F06001E3F21717F5E004B
:1079CA0000417F7F09197F6600266F4D5973320087
:1079DA000003417F7F410300007F7F40407F7F009B
:1079EA00001F3F60603F1F00007F7F3018307F7F9D
:1079FA000043673C183C674300074F78784F0700FD
:107A0A0000476371594D677300007F7F4141000051
:107A1A00000103060C183060000041417F7F00001E
:107A2A0000080C0603060C08008080808080808095
:107A3A00800000030704000000207454543C78407E
:107A4A0000417F3F4848783000387C44446C280025
:107A5A0000307848493F7F4000387C54545C180015
:107A6A0000487E7F490302000098BCA4A4F87C0465
:107A7A0000417F7F08047C780000447D7D4000003F
:107A8A000060E08080FD7D0000417F7F10386C44FB
:107A9A000000417F7F400000007C7C18381C7C7805
:107AAA00007C7C04047C780000387C44447C3800E8
:107ABA000084FCF8A4243C1800183C24A4F8FC8494
:107ACA0000447C784C041C1800485C54547424000C
:107ADA000000043E7F442400003C7C40403C7C4043
:107AEA00001C3C60603C1C00003C7C7038707C3C94
:107AFA0000446C3810386C44009CBCA0A0FC7C008C
:107B0A00004C64745C4C64000008083E77414100F4
:107B1A000000000077770000004141773E08080026
:107B2A0000020301030203010070784C464C78708E
:107B3A00000E9F91B1FB4A00003A7A40407A7A409F
:107B4A0000387C54555D19000002237555557D7B1C
:107B5A0042217554547D794000217555547C7840F2
:107B6A0000207457577C784000183CA4A4E44000D5
:107B7A0000023B7D55555D1B02397D54545D190049
:107B8A0000397D55545C18000001457C7C41010098
:107B9A00000203457D7D43020001457D7C400000D3
:107BAA0000797D1612167D790070782B2B7870007B
:107BBA0000447C7C5555450000207454547C7C5408
:107BCA00547C7E0B097F7F4900327B49497B320016
:107BDA0000327A48487A320000327A4A48783000CD
:107BEA00003A7B41417B7A40003A7A4240787840B9
:107BFA00009ABAA0A0FA7A000001193C66663C19FC
:107C0A00013D7D40407D3D0000183C24E7E72424E7
:107C1A0000687E7F49436620002B2FFCFC2F2B0037
:107C2A0000FFFF09092FF6F8A040C088FE7F09036C
:107C3A0002207454557D79400000447D7D41000046
:107C4A00003078484A7A320000387840427A7A40DE
:107C5A00007A7A0A0A7A7000007D7D19317D7D00EA
:107C6A000000262F292F2F280000262F292F260033
:107C7A000030784D456020000038380808080800B0
:107C8A000008080808383800004F6F3018CCEEBBDF
:107C9A00914F6F30186C76FBF90000007B7B000077
:107CAA0000081C3622081C362222361C0822361CE2
:107CBA0008AA005500AA005500AA55AA55AA55AA0D
:107CCA0055DDFFAA77DDAAFF77000000FFFF00005D
:107CDA0000101010FFFF000000141414FFFF000032
:107CEA00001010FFFF00FFFF001010F0F010F0F07E
:107CFA0000141414FCFC0000001414F7F700FFFF32
:107D0A00000000FFFF00FFFF001414F4F404FCFC61
:107D1A000014141717101F1F0010101F1F101F1F09
:107D2A00001414141F1F000000101010F0F00000BF
:107D3A00000000001F1F1010101010101F1F10103D
:107D4A0010101010F0F0101010000000FFFF1010BB
:107D5A00101010101010101010101010FFFF10103B
:107D6A0010000000FFFF1414140000FFFF00FFFFC3
:107D7A001000001F1F101717140000FCFC04F4F475
:107D8A001414141717101717141414F4F404F4F431
:107D9A00140000FFFF00F7F7141414141414141439
:107DAA00141414F7F700F7F714141414171714140B
:107DBA001410101F1F101F1F10141414F4F414149D
:107DCA00141010F0F010F0F01000001F1F101F1F09
:107DDA00100000001F1F141414000000FCFC1414EF
:107DEA00140000F0F010F0F0101010FFFF10FFFF69
:107DFA0010141414FFFF1414141010101F1F000085
:107E0A0000000000F0F0101010FFFFFFFFFFFFFF5F
:107E1A00FFF0F0F0F0F0F0F0F0FFFFFFFF000000DD
:107E2A000000000000FFFFFFFF0F0F0F0F0F0F0FE3
:107E3A000F387C446C386C4400FCFE2A2A3E14003D
:107E4A00007E7E020206060000027E7E027E7E021E
:107E5A000063775D4963630000387C447C3C04041A
:107E6A000080FE7E20203E1E000406027E7C060262
:107E7A000099BDE7E7BD9900001C3E6B496B3E1CAB
:107E8A00004C7E7301737E4C0030784A4F7D390076
:107E9A0000183C243C3C243C1898FC643C3E273D9A
:107EAA0018000000000000000000000000000000B0
:107EBA0000000000000000000000000000000000B8
:107ECA0000000000000000000000000000000000A8
:107EDA000000000000000000000000000000000098
:107EEA000000000000000000000000000000000088
:107EFA000000000000000000000000000000000078
:107F0A000000000000000000000000000000000067
:107F1A000000000000000000000000000000000057
:107F2A000000000000000000000000000000000047
:107F3A0000000000005C000C000C7C287C7C447C67
:107F4A00241048285408000C003844004438002003
:107F5A001008103810804000101010004000201047
:107F6A0008384438007C006454484454281C107C67
:107F7A004C542438542004740C28542808543800CB
:107F8A0050008050001028442828284428100454FF
:107F9A0008384C5C7814787C54283844447C44383B
:107FAA007C54447C14043844347C107C007C0020CB
:107FBA00403C7C106C7C40407C087C7C047C7C448B
:107FCA007C7C14083844787C1468485424047C0463
:107FDA007C407C3C403C7C207C6C106C1C601C64AB
:107FEA00544C7C4400081020447C0008040880801B
:057FFA008004080000F6
:020000040020DA
:08000000FFFFFFFFFFFFFFFF00
:020000040030CA
:0E000000000C1F1EFF8381FF0FC00FE00F409A
:00000001FF
