:0400000007EF00F016
:100008004D826AED0BF05AEF0EF06D0E0001796F1C
:10001800000E00017A6F56D3250E00018C19D8B452
:1000280007D069C0D9FF6AC0DAFF8CC0DFFF47D3A9
:10003800000E00017C6F000E7B6F03D000017C85F1
:1000480013D06BC0F6FF6CC0F7FF00016B4B6C2B35
:100058000800F5CF8CF000018C51000AD8B440D3C9
:10006800660AD8B4EBD72ED3070E00017C15D8B496
:1000780010D3000E00017E6F060E7D6F79C0D9FF88
:100088007AC0DAFFDECF89F0DECF8AF0DDCF8BF0E1
:10009800030E00017927000E7A2300018BAF11D0DF
:1000A80089C013F08AC014F08BC015F086EC0EF0EE
:1000B80013C089F014C08AF015C08BF0030E00013C
:1000C8007B13000E0001846F000E836F00018951BD
:1000D80000018A1100018B11D8B491D0820E000161
:1000E800706FFF0E0001716F89C072F08AC073F0E3
:1000F8008BC074F08CC075F0100E06D00001D8903B
:100108007533743373337233E82EF8D700017251A4
:10011800000170250001836F000E000171210001AC
:10012800846F00018307D8A0840783C021F084C0AE
:1001380022F0000E246E030E236E73EC0EF021C025
:1001480083F022C084F083C019F084C01AF0000E36
:100158001C6E0A0E1B6EFFEC0BF019C083F01AC060
:1001680084F0000184AF04D000018307D8A084077D
:100178000001835100087BEC03F036C085F037C0DE
:1001880086F038C087F085C027F086C028F087C081
:1001980029F089C02AF08AC02BF08BC02CF062ECC1
:1001A80009F027C085F028C086F029C087F085C0EF
:1001B80013F086C014F087C015F0000E166E800E7E
:1001C800176E3F0E186EB7EC0BF0D8B005D00001D3
:1001D8008307D8A0840713D085C013F086C014F015
:1001E80087C015F0000E166E200E176E410E186EA1
:1001F800B7EC0BF0D8A003D00001834B842B00018F
:100208007EBF08D000017E511DE10D0E00017D5D0D
:10021800D8B018D089C040F08AC041F08BC042F0F5
:1002280000017D517FEC05F036C043F037C044F043
:1002380038C045F0A8EC06F040C089F041C08AF00B
:1002480042C08BF0000184BF08D00001845126E130
:100258000A0E0001835DD8B021D000018951000148
:100268008A1100018B11D8B45BD089C03DF08AC0D7
:100278003EF08BC03FF0D4EC08F03D503E103F10EC
:100288004010D8A44DD0000184BF4AD00001845149
:1002980005E1020E0001835DD8A042D085C013F0AD
:1002A80086C014F087C015F0700E166E890E176E92
:1002B800400E186EB7EC0BF0D8B003D00001F70E63
:1002C80002D00001F80E8327FF0E8423000183511A
:1002D8007BEC03F036C085F037C086F038C087F075
:1002E80089C013F08AC014F08BC015F085C016F0D1
:1002F80086C017F087C018F0A7EC07F013C07FF08E
:1003080014C080F015C081F016C082F0000E000104
:10031800896F000E00018A6F000E00018B6F33D0C9
:1003280089C03DF08AC03EF08BC03FF0D4EC08F0A5
:100338003DC07FF03EC080F03FC081F040C082F0F9
:1003480089C063F08AC064F08BC065F07FC01BF081
:1003580080C01CF081C01DF082C01EF063EC0DF05F
:100368001BC066F01CC067F01DC068F0B8EC0DF04B
:1003780063C089F064C08AF065C08BF0000E00018C
:10038800846F000E836F010E00018C6F0A0E00014E
:100398008C19D8B41ED000018C51040D860EF3249C
:1003A800F66E7F0EF420F76E0900F55000017F5DB0
:1003B8000900F550000180590900F55000018159E4
:1003C8000900F55000018259D8A003D000018C2BF8
:1003D800DDD7030E00017B150001706F000E0001D0
:1003E8007C150001716F0001705100017111D8B4C2
:1003F80052D069C0D9FF6AC0DAFF2D0E48D07FC03D
:1004080013F080C014F081C015F082C016F000010E
:100418008C51040D860EF324F66E7F0EF420F76ED1
:100428000900F5CF17F00900F5CF18F00900F5CF4E
:1004380019F00A00F5CF1AF041EC0CF013C085F062
:1004480014C086F015C087F016C088F085C013F078
:1004580086C014F087C015F088C016F00A0E176E13
:10046800000E186E000E196E000E1A6E30EC0DF0AC
:1004780013C085F014C086F015C087F016C088F048
:1004880000018551300F69C0D9FF6AC0DAFFDF6EFD
:100498000001694B6A2B00018C0700018C29D8B434
:1004A8000ED0ADD769C0D9FF6AC0DAFF300EDF6E53
:1004B8000001694B6A2B00018307D8A0840700015B
:1004C80084BF07D000018451EDE100018305D8B055
:1004D800E9D700017EBF0CD000017E5105E1090E6D
:1004E80000017D5DD8A004D0080E00018C6F02D0F9
:1004F8007DC08CF000018C5100017D5F000E000171
:100508008CBFFF0E00017E5B00018C510001D8B446
:1005180009D069C0D9FF6AC0DAFF2E0EDF6E00016C
:10052800694B6A2B00018C517BEC03F036C076F0E6
:1005380037C077F038C078F089C02AF08AC02BF02D
:100548008BC02CF076C027F077C028F078C029F04F
:1005580062EC09F027C03DF028C03EF029C03FF00A
:10056800D4EC08F03DC07FF03EC080F03FC081F081
:1005780040C082F073D07FC013F080C014F081C0F7
:1005880015F082C016F000018C51040D860EF3247C
:10059800F66E7F0EF420F76E0900F5CF17F009000C
:1005A800F5CF18F00900F5CF19F00A00F5CF1AF0C9
:1005B80041EC0CF013C085F014C086F015C087F02C
:1005C80016C088F085C013F086C014F087C015F0F7
:1005D80088C016F00A0E176E000E186E000E196EFF
:1005E800000E1A6E30EC0DF013C085F014C086F0C2
:1005F80015C087F016C088F000018551300F69C01A
:10060800D9FF6AC0DAFFDF6E0001694B6A2B7FC031
:1006180013F080C014F081C015F082C016F00001FC
:100628008C51040D860EF324F66E7F0EF420F76EBF
:100638000900F5CF17F00900F5CF18F00900F5CF3C
:1006480019F00A00F5CF1AF030EC0DF013C07FF066
:1006580014C080F015C081F016C082F000018C072C
:1006680000018C29D8B40ED086D769C0D9FF6AC0DA
:10067800DAFF300EDF6E0001694B6A2B00017D073F
:10068800D8A07E0700017D5100017E11D8B41AD090
:10069800ECD7030E00017B150001706F000E0001FE
:1006A8007C150001716F0001705100017111D8B4FF
:1006B80009D069C0D9FF6AC0DAFF2D0EDF6E0001CC
:1006C800694B6A2B6BC0F6FF6CC0F7FF00016B4BE0
:1006D8006C2B0800F5CF8CF000018C51D8A49CD469
:1006E80069C0D9FF6AC0DAFF000EDF6E12003C6EE7
:1006F8003CAE01D13C6C3C50800A120FD8A091D07E
:10070800000E246E030E236E000E1C6E0A0E1B6E66
:10071800000E166E640E156E3C50136E146A13BEEE
:100728001406C1EC0CF013C019F014C01AF0FFEC59
:100738000BF0090E1924216E000E1A20226E73EC9C
:100748000EF0D50E2124F66E7F0E2220F76E0900DA
:10075800F5CF2AF00900F5CF2BF00A00F5CF2CF0E1
:10076800000E1C6E640E1B6E3C50196E1A6A19BE80
:100778001A06FFEC0BF0120E1924216E000E1A2037
:10078800226E000E246E030E236E73EC0EF0D50E4F
:100798002124F66E7F0E2220F76E0900F5CF27F090
:1007A8000900F5CF28F00A00F5CF29F062EC09F02E
:1007B80027C039F028C03AF029C03BF039C027F0EB
:1007C8003AC028F03BC029F0000E246E030E236EB9
:1007D800000E166E0A0E156E3C50136E146A13BE88
:1007E8001406C1EC0CF013C021F014C022F073EC15
:1007F8000EF0D50E2124F66E7F0E2220F76E09002A
:10080800F5CF2AF00900F5CF2BF00A00F5CF2CF030
:1008180062EC09F027C036F028C037F029C038F05C
:1008280012003C50800A750FD8A053D0000E1C6EE1
:100838000A0E1B6E3C50196E1A6A19BE1A06FFEC96
:100848000BF0090E1924216E000E1A20226E000EDC
:10085800246E030E236E73EC0EF0D50E2124F66E73
:100868007F0E2220F76E0900F5CF27F00900F5CF9B
:1008780028F00A00F5CF29F0000E246E030E236E2F
:10088800000E166E0A0E156E3C50136E146A13BED7
:100898001406C1EC0CF013C021F014C022F073EC64
:1008A8000EF0D50E2124F66E7F0E2220F76E090079
:1008B800F5CF2AF00900F5CF2BF00A00F5CF2CF080
:1008C80062EC09F027C036F028C037F029C038F0AC
:1008D80012003C50030DD50EF324F66E7F0EF42063
:1008E800F76E0900F5CF36F00900F5CF37F00A00AA
:1008F800F5CF38F012003C50800A120FD8A091D0E2
:10090800000E246E030E236E000E1C6E0A0E1B6E64
:10091800000E166E640E156E3C50136E146A13BEEC
:100928001406C1EC0CF013C019F014C01AF0FFEC57
:100938000BF0090E1924216E000E1A20226E73EC9A
:100948000EF0AE0E2124F66E7F0E2220F76E0900FF
:10095800F5CF2AF00900F5CF2BF00A00F5CF2CF0DF
:10096800000E1C6E640E1B6E3C50196E1A6A19BE7E
:100978001A06FFEC0BF0120E1924216E000E1A2035
:10098800226E000E246E030E236E73EC0EF0AE0E74
:100998002124F66E7F0E2220F76E0900F5CF27F08E
:1009A8000900F5CF28F00A00F5CF29F062EC09F02C
:1009B80027C039F028C03AF029C03BF039C027F0E9
:1009C8003AC028F03BC029F0000E246E030E236EB7
:1009D800000E166E0A0E156E3C50136E146A13BE86
:1009E8001406C1EC0CF013C021F014C022F073EC13
:1009F8000EF0AE0E2124F66E7F0E2220F76E09004F
:100A0800F5CF2AF00900F5CF2BF00A00F5CF2CF02E
:100A180062EC09F027C036F028C037F029C038F05A
:100A280012003C50800A750FD8A053D0000E1C6EDF
:100A38000A0E1B6E3C50196E1A6A19BE1A06FFEC94
:100A48000BF0090E1924216E000E1A20226E000EDA
:100A5800246E030E236E73EC0EF0AE0E2124F66E98
:100A68007F0E2220F76E0900F5CF27F00900F5CF99
:100A780028F00A00F5CF29F0000E246E030E236E2D
:100A8800000E166E0A0E156E3C50136E146A13BED5
:100A98001406C1EC0CF013C021F014C022F073EC62
:100AA8000EF0AE0E2124F66E7F0E2220F76E09009E
:100AB800F5CF2AF00900F5CF2BF00A00F5CF2CF07E
:100AC80062EC09F027C036F028C037F029C038F0AA
:100AD80012003C50030DAE0EF324F66E7F0EF42088
:100AE800F76E0900F5CF36F00900F5CF37F00A00A8
:100AF800F5CF38F012003F6E6D0E3F649FD0000EA8
:100B0800246E030E236E000E1C6E0A0E1B6E000E62
:100B1800166E640E156E3FC013F0146AC1EC0CF02B
:100B280013C019F014C01AF0FFEC0BF0090E1924C9
:100B3800216E000E1A20226E73EC0EF0D50E2124C1
:100B4800F66E7F0E2220F76E0900F5CF2AF0090015
:100B5800F5CF2BF00A00F5CF2CF0000E1C6E640EBA
:100B68001B6E3FC019F01A6AFFEC0BF0120E192425
:100B7800216E000E1A20226E000E246E030E236EC4
:100B880073EC0EF0D50E2124F66E7F0E2220F76E40
:100B98000900F5CF27F00900F5CF28F00A00F5CFB6
:100BA80029F062EC09F027C03CF028C03DF029C0CC
:100BB8003EF0000E246E030E236E000E166E0A0E13
:100BC800156E3FC013F0146AC1EC0CF013C021F08D
:100BD80014C022F073EC0EF0D50E2124F66E7F0EB1
:100BE8002220F76E0900F5CF2AF00900F5CF2BF087
:100BF8000A00F5CF2CF03CC027F03DC028F03EC0DD
:100C080029F062EC09F027C039F028C03AF029C071
:100C18003BF039C027F03AC028F03BC029F0000E5D
:100C28002A6E000E2B6E3F0E2C6E62EC09F027C068
:100C380036F028C037F029C038F012000A0E3F6499
:100C480063D0000E246E030E236E000E166E0A0E7D
:100C5800156E3FC013F0146AC1EC0CF013C021F0FC
:100C680014C022F073EC0EF0D50E2124F66E7F0E20
:100C78002220F76E0900F5CF2AF00900F5CF2BF0F6
:100C88000A00F5CF2CF0000E1C6E0A0E1B6E3FC03A
:100C980019F01A6AFFEC0BF0090E1924216E000EE8
:100CA8001A20226E000E246E030E236E73EC0EF0D3
:100CB800D50E2124F66E7F0E2220F76E0900F5CF9F
:100CC80027F00900F5CF28F00A00F5CF29F062ECEB
:100CD80009F027C03CF028C03DF029C03EF03CC0D8
:100CE80027F03DC028F03EC029F0000E2A6E000E05
:100CF8002B6E3F0E2C6E62EC09F027C036F028C030
:100D080037F029C038F012003F50030DD50EF324F8
:100D1800F66E7F0EF420F76E0900F5CF27F0090074
:100D2800F5CF28F00A00F5CF29F0000E2A6E000E44
:100D38002B6E3F0E2C6E62EC09F027C036F028C0EF
:100D480037F029C038F0120042C046F0476A486AB6
:100D58004134463601E3478046500001626F45C082
:100D680046F0476A486A4434463601E347804650AD
:100D78000001616F000162510001D8B40FD0000179
:100D880061510001625DD8B010D0000162510008C5
:100D980000016125466E180E466407D043C040F036
:100DA80044C041F045C042F0120000016151000109
:100DB800D8B40FD0000162510001615DD8B010D0E5
:100DC80000016151000800016225466E180E466454
:100DD80007D040C040F041C041F042C042F012008C
:100DE800060E0001606F42AE02D00001608F45AE72
:100DF80002D00001608D418EFF0E4016FF0E411695
:100E0800000E4216448EFF0E4316FF0E4416000EC7
:100E18004516000161510001625DD8B022D0D8901A
:100E2800433644364536000161070001625100012E
:100E38006119D8B40FD00001600760C046F0070EF2
:100E48004616D8B407D0EBD7D89042324132403258
:100E58000001622B0001615100016219D8B428D049
:100E6800F3D7000162510001615DD8B021D0D8905C
:100E780040364136423600016207000162510001E6
:100E88006119D8B40FD00001600760C046F0070EA2
:100E98004616D8B407D0EBD7D890453244324332FF
:100EA8000001612B0001615100016219D8A4F4D737
:100EB800000160AF0CD0FF0E401AFF0E411AFF0E62
:100EC800421A010E4026000E4122000E4222000165
:100ED80060AD0CD0FF0E431AFF0E441AFF0E451AE0
:100EE800010E4326000E4422000E4522000E00018A
:100EF800606F40504326415044224250452245AE3F
:100F08000FD0FF0E431AFF0E441AFF0E451A010EAA
:100F18004326000E4422000E4522010E0001606F98
:100F280043C013F044C014F045C015F062C016F079
:100F380060C017F013EC0BF013C040F014C041F080
:100F480015C042F0120015C019F01A6A1B6A143451
:100F5800193601E31A801950216E2150D8A409D0FE
:100F6800000E136E000E146E000E156E000E166E37
:100F7800120018C019F01A6A1B6A1734193601E3EF
:100F88001A801950206E2050D8A409D0000E136E74
:100F9800000E146E000E156E000E166E1200148EE2
:100FA800FF0E1316FF0E1416000E1516178EFF0EE1
:100FB8001616FF0E1716000E1816000E1C6E000EE1
:100FC8001D6E000E1E6E000E1F6E7F0E215E2050DD
:100FD800980F215E180E206ED8901C361D361E36CE
:100FE8001F361650135C1750145818501558D8A0AF
:100FF80007D01650135E1750145A1850155A1C80F3
:10100800D890133614361536202EE6D721AE16D0D2
:101018002150800A970FD8B009D0000E136E000E29
:10102800146E000E156E000E166E1200D8901F3248
:101038001E321D321C32213EF9D715D0170E2164FD
:101048000FD0000E136E000E146E000E156E000EFB
:10105800166E1200D8901C361D361E361F36210615
:101068002150D8A4F7D71CC013F01DC014F01EC01F
:1010780015F01FC016F01200153416341E6E1E50DF
:10108800D8A409D0000E136E000E146E000E156E53
:10109800000E166E1200183419341D6E1D50D8A497
:1010A80009D0000E136E000E146E000E156E000EA1
:1010B800166E1200158EFF0E1316FF0E1416FF0E75
:1010C8001516000E1616188EFF0E1616FF0E17169A
:1010D800FF0E1816000E1916000E196E000E1A6E65
:1010E800000E1B6E000E1C6E7F0E1E5E1D50A00FA4
:1010F8001E5E200E1D6ED89019361A361B361C3609
:101108001650135C17501458185015581950165883
:10111800D8A009D01650135E1750145A1850155AF3
:101128001950165A1980D8901336143615361636B3
:101138001D2EE1D71EAE16D01E50800A9F0FD8B0C4
:1011480009D0000E136E000E146E000E156E000E00
:10115800166E1200D8901C321B321A3219321E3EFB
:10116800F9D715D01F0E1E640FD0000E136E000E97
:10117800146E000E156E000E166E1200D8901936F9
:101188001A361B361C361E061E50D8A4F7D719C0AF
:1011980013F01AC014F01BC015F01CC016F0120092
:1011A8003FC041F0426A436A3E34413601E342801F
:1011B80041500001656F00016551D8A409D0000EA7
:1011C8003D6E000E3E6E000E3F6E000E406E120029
:1011D800170E416E3DC042F03EC043F03FC044F0A0
:1011E8004128456E04D0D890443243324232452ECD
:1011F800FAD742500001606F3E8EFF0E3D16FF0E7B
:101208003E16000E3F163D500001616F3E50000132
:10121800626F3F500001636F0001646B8E0E000126
:10122800655F000165AF19D000016551800A8F0F15
:10123800D8B009D0000E3D6E000E3E6E000E3F6E17
:10124800000E406E12000001D8906433633362339D
:1012580061330001653FF7D71AD0170E00016565A5
:1012680011D0000E3D6E000E3E6E000E3F6E000E59
:10127800406E12000001D8906137623763376437D7
:1012880000016507000165510001D8A4F3D70001EA
:1012980060510001D8B409D00001641F631F621FA8
:1012A800616D000E62236323642361C03DF062C058
:1012B8003EF063C03FF064C040F0120029C02DF03A
:1012C8002E6A2F6A28342D3601E32E802D50306E79
:1012D8003050D8A407D0000E276E000E286E000EDE
:1012E800296E12002CC02DF02E6A2F6A2B342D3651
:1012F80001E32E802D50356E3550D8A407D0000E4E
:10130800276E000E286E000E296E120035507B0FD6
:10131800302629C035F02C50351A800E3516288E07
:101328002B8EFF0E2A16FF0E2B16000E2C16000E03
:10133800316E000E326E000E336E070E346E27A02B
:1013480006D02A5031262B5032222C503322D890E6
:10135800293228322732D8902A362B362C36342E8A
:10136800EED7090E346E27A006D02A5031262B500E
:1013780032222C503322D890293228322732D89062
:10138800333232323132342EEED731C013F032C01C
:1013980014F033C015F030C016F035C017F013EC58
:1013A8000BF013C027F014C028F015C029F0120064
:1013B800196E000E1B6E0A0E1918D8A404D0000E60
:1013C8004C6E4B2A12003F0E4C6406D0010E1B6E69
:1013D8004C50C00F186E02D04CC018F0200E195E89
:1013E800000E1A6E020E1A6401D051D03F0E186416
:1013F80012D0400E185E010E1B6E8A9418504009D8
:10140800136E1B503FEC0EF04B50B809136E1B5077
:101418003FEC0EF08A841550D8B41BD01950030D38
:10142800C30E166E7E0E176EF3501626F450172252
:101438001A50010DF3501626F450172216C0F6FF65
:1014480017C0F7FF0800F5CF13F01B503FEC0EF064
:101458001BD01950030DC30E166E7E0E176EF35077
:101468001626F45017221A50010DF3501626F45080
:10147800172216C0F6FF17C0F7FF0800F550FF0A3D
:10148800136E1B503FEC0EF0182A1A2AABD7050E24
:101498004C2612001A6E000E1D6E0A0E1A18D8A4D9
:1014A80004D0000E4C6E4B2A12003F0E4C6406D03E
:1014B800010E1D6E4C50C00F1B6E02D04CC01BF0AD
:1014C8001A50080DF3CF18F0F4CF19F0000E1C6E67
:1014D800070E1C6401D041D03F0E1B6412D0400E91
:1014E8001B5E010E1D6E8A941B504009136E1D5021
:1014F8003FEC0EF04B50B809136E1D503FEC0EF048
:101508008A841550D8B413D01C501824166E000EB7
:101518001920176EC30E1624F66E760E1720F76E76
:101528000800F5CF13F01D503FEC0EF013D01C50FF
:101538001824166E000E1920176EC30E1624F66EA8
:10154800760E1720F76E0800F550FF0A136E1D502F
:101558003FEC0EF01B2A1C2ABBD7080E4C261200A3
:10156800196E9268000E806E0F0EC16E000E936E9B
:10157800000E816E000E956E000E836E000E836E57
:101588008A9A310E186EB20EE82EFED7182EFCD7A6
:1015980000D08A8A8A988A908A928A94530EE82E72
:1015A800FED700F0C00E136E000E3FEC0EF0C00E1A
:1015B800136E010E3FEC0EF0400E136E000E3FEC62
:1015C8000EF0400E136E010E3FEC0EF0B80E136EC7
:1015D800000E3FEC0EF0B80E136E010E3FEC0EF04D
:1015E8001904D8A40ED0000E926E80683F0E136EB8
:1015F800000E3FEC0EF03F0E136E010E3FEC0EF0A6
:101608000AD03E0E136E000E3FEC0EF03E0E136E27
:10161800010E3FEC0EF0000EF9EC0CF01200165023
:10162800D8B405D0135014101510D8A40CD0000E3F
:10163800136E000E146E000E156E1200162AD89046
:10164800153214321332000E1314186E000E1414CF
:10165800196EFE0E15141A6E185019101A10D8B4F7
:101668000CD0ECD7162A010E1326000E1422000EF9
:101678001522D890153214321332000E1314186E36
:10168800000E1414196EFF0E15141A6E1850191046
:101698001A10D8B406D0E6D71606D89013361436E2
:1016A800153614BE03D0020E1660F6D716A0149E87
:1016B800D8901632165015121750D8A4158E13C08C
:1016C80013F014C014F015C015F012000600FACF7C
:1016D80001F0FBCF02F0E9CF03F0EACF04F0E1CF4D
:1016E80005F0E2CF06F0D9CF07F0DACF08F0F3CF54
:1016F80009F0F4CF0AF0F6CF0BF0F7CF0CF0F8CFE3
:101708000DF0F5CF0EF04DC00FF04EC010F04FC0E9
:1017180011F050C012F09EBC9E9C12C050F011C037
:101728004FF010C04EF00FC04DF00EC0F5FF0DC0C9
:10173800F8FF0CC0F7FF0BC0F6FF0AC0F4FF09C0A2
:10174800F3FF08C0DAFF07C0D9FF06C0E2FF05C0F3
:10175800E1FF04C0EAFF03C0E9FF02C0FBFF01C0CC
:10176800FAFF4D92110015AE16D013C019F014C02F
:101778001AF015C01BF0191E1A1E1B1E192A000E7E
:101788001A221B22000E1924136E000E1A20146E42
:10179800800E1B20156E18AE16D016C019F017C093
:1017A8001AF018C01BF0191E1A1E1B1E192A000E4B
:1017B8001A221B22000E1924166E000E1A20176E0C
:1017C800800E1B20186E000E131A000E141A800EBD
:1017D800151A000E161A000E171A800E181A16502F
:1017E800135C1750145818501558D8B002D0D89018
:1017F8001200D8801200000E1E6E1CAE06D01B6CA4
:101808001C1ED8B01C2A010E1E6E1AAE06D0196C0A
:101818001A1ED8B01A2A010E1E1A000E206E000ECB
:101828001F6E1B501C10D8B41CD0010E1D6E04D0A6
:10183800D8901B361C361D2A1CAEFAD7D8901F36F6
:1018480020361B50195C1C501A58D8A005D01B50C4
:10185800195E1C501A5A1F80D8901C321B321D2E3C
:10186800EDD71E50D8B404D01F6C201ED8B0202A43
:101878001FC019F020C01AF01200000E1B6E000ED7
:101888001C6E000E1D6E000E1E6E175018101910DB
:101898001A10D8B42AD0010E1F6E06D0D890173669
:1018A800183619361A361F2A1AAEF8D7D8901B36AA
:1018B8001C361D361E361750135C18501458195014
:1018C80015581A501658D8A009D01750135E18503A
:1018D800145A1950155A1A50165A1B80D8901A3291
:1018E8001932183217321F2EE1D71BC013F01CC053
:1018F80014F01DC015F01EC016F01200010EB4EC55
:101908000AF0010E156E010EDEEC0DF0A8EC0EF0DB
:1019180020EEA1F010EE8DF0130EDBCFE3FFE8060A
:10192800FCE2060E4A6E130E496EAE0EE82EFED786
:10193800492EFCD74A2EFAD78D0E0001696F000E8A
:1019480000016A6FFC0E00016B6F7F0E00016C6F67
:1019580091EC0DF025C06DF026C06EF027C06FF039
:1019680009EC00F08D0E226E000E236E010E246E1F
:10197800010E256E98EC0EF0D4D7000E186E14AE3A
:1019880006D0136C141ED8B0142A010E186E16AEA9
:1019980004D0156C161ED8B0162A15501610D8B4D7
:1019A80018D0010E176E04D0D89015361636172A9F
:1019B80016AEFAD71550135C16501458D8A004D098
:1019C8001550135E1650145AD89016321532172E29
:1019D800F1D71850D8B404D0136C141ED8B0142AF8
:1019E80013C013F014C014F01200156E000E176E19
:1019F800070E176401D012008A94400E136E000E71
:101A08003FEC0EF0400E136E010E3FEC0EF0175037
:101A1800B809136E000E3FEC0EF01750B809136E9C
:101A2800010E3FEC0EF08A84000E166E3F0E16640F
:101A380001D010D01550FF0DF3CF13F0000E3FEC7E
:101A48000EF01550FF0DF3CF13F0010E3FEC0EF022
:101A5800162AECD7172ACCD71750181019101A10B5
:101A6800D8B424D0010E1B6E06D0D890173618367D
:101A780019361A361B2A1AAEF8D71750135C1850A5
:101A88001458195015581A501658D8A008D017507D
:101A9800135E1850145A1950155A1A50165AD890DD
:101AA8001A321932183217321B2EE7D713C013F027
:101AB80014C014F015C015F016C016F012008E0EE2
:101AC800236E06D0D8901E321D321C321B32232AB8
:101AD800000E1B141F6E000E1C14206E000E1D1429
:101AE800216EFF0E1E14226E1F502010211022108E
:101AF800D8A4E8D71BC013F01CC014F01DC015F003
:101B080023C016F0000E176E13EC0BF013C01BF079
:101B180014C01CF015C01DF01200C0EC0EF013C06C
:101B28002AF014C02BF0040E1C6E000E1B6E2AC087
:101B380028F02BC029F0070ED89028362936E82E31
:101B4800FBD728C019F029C01AF0FFEC0BF019C018
:101B580021F01AC022F023EC0EF021C025F022C09B
:101B680026F023C027F0120000016651000167111A
:101B780000016811D8B409D0000E0001661B000EE0
:101B88000001671B800E0001681B63C040F064C041
:101B980041F065C042F066C043F067C044F068C0D9
:101BA80045F0A8EC06F040C063F041C064F042C0C4
:101BB80065F01200176E000E166E800E1760120088
:101BC800070E156401D0120017C04CF015C04BF079
:101BD8003F0E176404D0400E175E010E166E8A94ED
:101BE80017504009136E16503FEC0EF01550B80907
:101BF800136E16503FEC0EF08A84120018D0205055
:101C0800D8B40AD021C015F01EC0D9FF1FC0DAFF12
:101C1800DF504EEC0AF009D021C015F01EC0D9FFE4
:101C28001FC0DAFFDF50DCEC09F01E4A1F2A1EC075
:101C3800D9FF1FC0DAFFDF50D8B41200E0D7000E7A
:101C4800246E22AE06D0216C221ED8B0222A010EA4
:101C5800246E21C013F022C014F0156A8E0E166E81
:101C680024C017F013EC0BF013C021F014C022F0BD
:101C780015C023F01200146E1450D8B403D08A8013
:101C88008A9202D08A928A82000E956E8A9613C032
:101C98008CFF8A88080EE82EFED700F08A98080E76
:101CA800E82EFED700F08A908A9212006C0EF66E2B
:101CB8001D0EF76E000EF86E00EEA1F010EE14F097
:101CC8000900F5CFEEFFE550E150FAE14C6A4B6AA6
:101CD8004D904D92000EF86E000182EF0CF02150ED
:101CE8002302F3CF25F0F4CF26F021502402F3503D
:101CF800262622502302F350262625C021F026C08E
:101D080022F01200135014101510D8B406D0000E8B
:101D1800131A000E141A800E151A13C013F014C0EB
:101D280014F015C015F0120025C015F02450DEEC93
:101D38000DF022C01EF023C01FF0010E206E010E10
:101D4800216E02EC0EF01200030E926E000E806EF1
:101D5800010EC26E0D0EC16EC08E9E9C9D8CF28EC1
:101D6800F28C120078203D200000000000000000E6
:101D78000000000000000000010EC26EC282C2B264
:0C1D8800FED7C3CF13F0C4CF14F012003C
:1076C20000000000000000000000000000000000B8
:1076D20000000000000000000000000000000000A8
:1076E2000000000000000000000000000000000098
:1076F2000000000000000000000000000000000088
:107702000000000000000000000000000000000077
:107712000000000000000000000000000000000067
:107722000000000000000000000000000000000057
:107732000000000000000000000000000000000047
:107742000000000000000000000000000000000037
:107752000000000000000000000000000000000027
:107762000000000000000000000000000000000017
:107772000000000000000000000000000000000007
:1077820000000000000000000000000000000000F7
:1077920000000000000000000000000000000000E7
:1077A20000000000000000000000000000000000D7
:1077B20000000000000000000000000000000000C7
:1077C20000000000000000000000065F5F060000ED
:1077D200000007070007070000147F7F147F7F1453
:1077E20000242E6B6B3A120000466630180C66625B
:1077F20000307A4F5D377A4800040703000000002A
:1078020000001C3E63410000000041633E1C00007A
:1078120000082A3E1C1C3E2A0808083E3E080800B2
:10782200000080E060000000000808080808080066
:107832000000006060000000006030180C060301C8
:10784200003E7F71594D7F3E0040427F7F404000A5
:1078520000627359496F660000226349497F36000E
:1078620000181C16537F7F5000276745457D39005D
:10787200003C7E4B4979300000030371790F070009
:1078820000367F49497F360000064F49693F1E0096
:107892000000006666000000000080E6660000004E
:1078A20000081C3663410000002424242424240000
:1078B20000004163361C080000020351590F060004
:1078C200003E7F415D5D1F1E007C7E13137E7C00A7
:1078D20000417F7F49497F36001C3E63414163225C
:1078E20000417F7F41633E1C00417F7F495D4163D0
:1078F20000417F7F491D0103001C3E6341517372A9
:10790200007F7F08087F7F000000417F7F410000E9
:1079120000307040417F3F0100417F7F081C776348
:1079220000417F7F41406070007F7F0E1C0E7F7F91
:10793200007F7F060C187F7F001C3E6341633E1C64
:1079420000417F7F49090F06001E3F21717F5E00C3
:1079520000417F7F09197F6600266F4D59733200FF
:107962000003417F7F410300007F7F40407F7F0013
:10797200001F3F60603F1F00007F7F3018307F7F15
:107982000043673C183C674300074F78784F070075
:1079920000476371594D677300007F7F41410000CA
:1079A200000103060C183060000041417F7F000097
:1079B20000080C0603060C0800808080808080800E
:1079C200800000030704000000207454543C7840F7
:1079D20000417F3F4848783000387C44446C28009E
:1079E20000307848493F7F4000387C54545C18008E
:1079F20000487E7F490302000098BCA4A4F87C04DE
:107A020000417F7F08047C780000447D7D400000B7
:107A12000060E08080FD7D0000417F7F10386C4473
:107A22000000417F7F400000007C7C18381C7C787D
:107A3200007C7C04047C780000387C44447C380060
:107A42000084FCF8A4243C1800183C24A4F8FC840C
:107A520000447C784C041C1800485C545474240084
:107A62000000043E7F442400003C7C40403C7C40BB
:107A7200001C3C60603C1C00003C7C7038707C3C0C
:107A820000446C3810386C44009CBCA0A0FC7C0004
:107A9200004C64745C4C64000008083E774141006D
:107AA2000000000077770000004141773E0808009F
:107AB20000020301030203010070784C464C787007
:107AC200000E9F91B1FB4A00003A7A40407A7A4018
:107AD20000387C54555D19000002237555557D7B95
:107AE20042217554547D794000217555547C78406B
:107AF20000207457577C784000183CA4A4E440004E
:107B020000023B7D55555D1B02397D54545D1900C1
:107B120000397D55545C18000001457C7C41010010
:107B2200000203457D7D43020001457D7C4000004B
:107B320000797D1612167D790070782B2B787000F3
:107B420000447C7C5555450000207454547C7C5480
:107B5200547C7E0B097F7F4900327B49497B32008E
:107B620000327A48487A320000327A4A4878300045
:107B7200003A7B41417B7A40003A7A424078784031
:107B8200009ABAA0A0FA7A000001193C66663C1974
:107B9200013D7D40407D3D0000183C24E7E7242460
:107BA20000687E7F49436620002B2FFCFC2F2B00B0
:107BB20000FFFF09092FF6F8A040C088FE7F0903E5
:107BC20002207454557D79400000447D7D410000BF
:107BD200003078484A7A320000387840427A7A4057
:107BE200007A7A0A0A7A7000007D7D19317D7D0063
:107BF2000000262F292F2F280000262F292F2600AC
:107C02000030784D45602000003838080808080028
:107C12000008080808383800004F6F3018CCEEBB57
:107C2200914F6F30186C76FBF90000007B7B0000EF
:107C320000081C3622081C362222361C0822361C5A
:107C420008AA005500AA005500AA55AA55AA55AA85
:107C520055DDFFAA77DDAAFF77000000FFFF0000D5
:107C620000101010FFFF000000141414FFFF0000AA
:107C7200001010FFFF00FFFF001010F0F010F0F0F6
:107C820000141414FCFC0000001414F7F700FFFFAA
:107C9200000000FFFF00FFFF001414F4F404FCFCDA
:107CA2000014141717101F1F0010101F1F101F1F82
:107CB200001414141F1F000000101010F0F0000038
:107CC200000000001F1F1010101010101F1F1010B6
:107CD20010101010F0F0101010000000FFFF101034
:107CE200101010101010101010101010FFFF1010B4
:107CF20010000000FFFF1414140000FFFF00FFFF3C
:107D02001000001F1F101717140000FCFC04F4F4ED
:107D12001414141717101717141414F4F404F4F4A9
:107D2200140000FFFF00F7F71414141414141414B1
:107D3200141414F7F700F7F7141414141717141483
:107D42001410101F1F101F1F10141414F4F4141415
:107D5200141010F0F010F0F01000001F1F101F1F81
:107D6200100000001F1F141414000000FCFC141467
:107D7200140000F0F010F0F0101010FFFF10FFFFE1
:107D820010141414FFFF1414141010101F1F0000FD
:107D920000000000F0F0101010FFFFFFFFFFFFFFD8
:107DA200FFF0F0F0F0F0F0F0F0FFFFFFFF00000056
:107DB2000000000000FFFFFFFF0F0F0F0F0F0F0F5C
:107DC2000F387C446C386C4400FCFE2A2A3E1400B6
:107DD200007E7E020206060000027E7E027E7E0297
:107DE2000063775D4963630000387C447C3C040493
:107DF2000080FE7E20203E1E000406027E7C0602DB
:107E02000099BDE7E7BD9900001C3E6B496B3E1C23
:107E1200004C7E7301737E4C0030784A4F7D3900EE
:107E220000183C243C3C243C1898FC643C3E273D12
:107E32001800000000000000000000000000000028
:107E42000000000000000000000000000000000030
:107E52000000000000000000000000000000000020
:107E62000000000000000000000000000000000010
:107E72000000000000000000000000000000000000
:107E820000000000000000000000000000000000F0
:107E920000000000000000000000000000000000E0
:107EA20000000000000000000000000000000000D0
:107EB20000000000000000000000000000000000C0
:107EC20000000000005C000C000C7C287C7C447CE0
:107ED200241048285408000C00384400443800207C
:107EE20010081038108040001010100040002010C0
:107EF20008384438007C006454484454281C107CE0
:107F02004C542438542004740C2854280854380043
:107F12005000805000102844282828442810045477
:107F220008384C5C7814787C54283844447C4438B3
:107F32007C54447C14043844347C107C007C002043
:107F4200403C7C106C7C40407C087C7C047C7C4403
:107F52007C7C14083844787C1468485424047C04DB
:107F62007C407C3C403C7C207C6C106C1C601C6423
:107F7200544C7C4400081020447C00080408808093
:107F820080040800010000000A00000064000000F4
:107F9200E803000010270000A086010040420F0005
:107FA2008096980000E1F50500CA9A3B00803F00E8
:107FB200204100C842007A44401C4650C347247402
:107FC2004997184BBCBE4C6B6E4E03155079AD6091
:107FD200F3497100803FCDCC3DD7233C12833AB7A1
:107FE200D138C62737388635C0D633CC2B32708984
:0E7FF20030E7DB2EE53C1E42A20D25660000A6
:020000040020DA
:08000000FFFFFFFFFFFFFFFF00
:020000040030CA
:0E000000000C1F1EFF8381FF0FC00FE00F409A
:00000001FF
