:04000000B5EF20F048
:1040860001000000000E026E000E016EFB0E015CC8
:10409600FF0E0258D8B01200014A022AF7D7015083
:1040A6000302F3CF05F0F4CF06F001500402F350FB
:1040B600062602500302F350062605C001F006C08C
:1040C60002F01200000E026E000E016EFB0E015C85
:1040D600FF0E0258D8B01200000E046E000E036EDA
:1040E600045007E10B0E035CD8B003D0034A042A40
:1040F600F7D7014A022AEAD7016E0150D8B403D095
:104106008A808A9202D08A928A8295688A868A886A
:10411600080EE82EFED700F083CF02F08A98080E2C
:10412600E82EFED700F08A908A92025012000A6E9C
:104136000A50D8B403D08A808A9202D08A928A82A0
:10414600000E956E8A9609C08CFF8A88080EE82EA6
:10415600FED700F08A98080EE82EFED700F08A9067
:104166008A921200860EF66E400EF76E000EF86EFC
:1041760000EE3DF010EE04F00900F5CFEEFFE5503D
:10418600E150FAE102EE00F0D80EEE6AE806FDE133
:1041960001EE00F0B40EEE6AE806FDE1436A426AFB
:1041A600416A000EF86E000143EF23F03DC001F0B6
:1041B6003EC002F03FC003F040C004F06D0E056E35
:1041C6004E0E066EC60E076E410E086E02EC21F00C
:1041D60001C03DF002C03EF003C03FF004C040F015
:1041E600390E3D26300E3E22000E3F22000E4022A2
:1041F600FF0E3F140D6E7F0E40140E6E1200000E61
:10420600096E000E0A6E000E0B6E000E0C6E01A0FB
:1042160008D00550092606500A2207500B220850DE
:104226000C22D8900536063607360836D890043262
:104236000332023201320150021003100410D8A4D6
:10424600E6D709C001F00AC002F00BC003F00CC0AB
:1042560004F01200000E316E000E336E0A0E336447
:1042660001D01200000E326E100E326401D01ED044
:1042760032500C0D000E2E6E020E2F6EF3502E26AF
:10428600F4502F223350010DF3502E24D96EF450E2
:104296002F20DA6E310EDE18D8A403D0010E316E4F
:1042A60003D0000E316E02D0322ADED73104D8A4F4
:1042B60005D03350C5EC24F00A0E4326332ACED758
:1042C6000B6E000E0D6E070E0D6401D012008A945F
:1042D600400E096E000E9AEC20F0400E096E010E9B
:1042E6009AEC20F00D50B809096E000E9AEC20F0F9
:1042F6000D50B809096E010E9AEC20F08A84000E62
:104306000C6E3F0E0C6401D010D00B50FF0DF3CF96
:1043160009F0000E9AEC20F00B50FF0DF3CF09F0D8
:10432600010E9AEC20F00C2AECD70D2ACCD7000E01
:10433600146E10AE06D00F6C101ED8B0102A010EE7
:10434600146E12AE04D0116C121ED8B0122A11507F
:104356001210D8B418D0010E136E04D0D8901136AE
:104366001236132A12AEFAD711500F5C125010589B
:10437600D8A004D011500F5E1250105AD8901232A5
:104386001132132EF1D71450D8B404D00F6C101E6E
:10439600D8B0102A0FC00FF010C010F01200000E97
:1043A6000C6E000E0B6E000E0E6E070E0E6401D024
:1043B6002DD0000E0F6E010E0F6401D025D08A9409
:1043C600400E096E0F509AEC20F00E50B809096E97
:1043D6000F509AEC20F08A84000E0D6E3F0E0D648D
:1043E60001D010D03B0E0B24F66E7B0E0C20F76E20
:1043F6000800F5CF09F00F509AEC20F00B4A0C2A72
:104406000D2AECD70F2AD7D70E2ACFD78A908A92B1
:104416001200066E000E076E030E076401D034D03C
:104426000650090D000E036E010E046EF3500326AE
:10443600F45004220750020DF3500324D96EF450B1
:104446000420DA6E0150DE18D8A41CD00650090DDF
:10445600000E036E010E046EF3500326F450042280
:104466000750020DF3500326F4500422010E0324D4
:10447600D96E000E0420DA6E0250DE18D8A402D0DF
:10448600010E1200072AC8D7000E1200000E066E93
:1044960004AE06D0036C041ED8B0042A010E066EC4
:1044A60002AE06D0016C021ED8B0022A010E061A10
:1044B600000E086E000E076E03500410D8B41CD010
:1044C600010E056E04D0D89003360436052A04AED4
:1044D600FAD7D890073608360350015C04500258C4
:1044E600D8A005D00350015E0450025A0780D89028
:1044F60004320332052EEDD70650D8B404D0076C2B
:10450600081ED8B0082A07C001F008C002F0120041
:104516000F6E000E116E3F0E0F6404D0400E0F5E3C
:10452600010E116E8A940F9E0F8C0FC009F0115068
:104536009AEC20F00BC001F0026A000E046E080E21
:10454600036E49EC22F00150BF0BB809096E1150F9
:104556009AEC20F08A8411507FEC20F011507FEC09
:1045660020F0106E8A940FC009F011509AEC20F0DA
:104576000C50D8B40FD00BC00DF0070E0D16010E5F
:104586000E6E0D2A02D0D8900E360D2EFCD70E5088
:1045960010100FD00BC00DF0070E0D16010E0E6E8B
:1045A6000D2A02D0D8900E360D2EFCD70E50FF0ADB
:1045B6001014106E8A8410C009F011509AEC20F085
:1045C60012000F6E9268000E806E0F0EC16E000E06
:1045D600936E000E816E000E956E000E836E000EB9
:1045E600836E8A9A310E0E6EB20EE82EFED70E2E0E
:1045F600FCD700D08A8A8A988A908A928A94530E27
:10460600E82EFED700F0C00E096E000E9AEC20F0E0
:10461600C00E096E010E9AEC20F0400E096E000ED7
:104626009AEC20F0400E096E010E9AEC20F0B80EBE
:10463600096E000E9AEC20F0B80E096E010E9AEC87
:1046460020F00F04D8A40ED0000E926E80683F0EA4
:10465600096E000E9AEC20F03F0E096E010E9AECE0
:1046660020F00AD03E0E096E000E9AEC20F03E0EA7
:10467600096E010E9AEC20F0000E63EC21F0120098
:104686003C68010E376E9668000E846E010EE4ECEF
:1046960022F0D2EC21F065EC20F0000E63EC21F064
:1046A600F4EC23F0000E3A6E130E3A6401D036D0C5
:1046B600000E3B6E030E3B6401D02ED03A50090D1E
:1046C600000E356E010E366EF3503526F450362246
:1046D6003B50020DF3503524D96EF4503620DA6E75
:1046E600630EDF6E3A50090D000E356E010E366E02
:1046F600F3503526F45036223B50020DF350352642
:10470600F4503622010E3524D96E000E3620DA6EAC
:10471600630EDF6E3B2ACED73A2AC6D7000E386E16
:10472600110E386401D01ED0000E396E0B0E39649E
:1047360001D016D038500C0D000E356E020E366EB6
:10474600F3503526F45036223950010DF3503524F6
:10475600D96EF4503620DA6E300EDF6E392AE6D77F
:10476600382ADED73728D8B437D03750D8B407D050
:104776003C2A3C504DEC2FF0000E376E432A84A0A5
:1047860003D03C50D1EC2AF084A203D03C50ABECD1
:1047960028F084A403D03C5000EC27F0310EABEC9B
:1047A60025F045EC20F0300EABEC25F084A003D0CC
:1047B6003C50D1EC2AF084A203D03C50ABEC28F05C
:1047C60084A403D03C5000EC27F03C50F7EC2CF0CE
:1047D600376E2DEC21F0C6D7000E63EC21F000EF0A
:1047E60000F0000E136E7F0E136401D01200000E4F
:1047F600126E3F0E126401D0C3D0010E126406D0B1
:104806003D0E12640BD0400E126008D012C00BF0A1
:10481600010E0C6E13508BEC22F01ED0010E1364A9
:1048260006D07D0E13640BD0800E136008D012C024
:104836000BF0010E0C6E13508BEC22F00DD05A0EBD
:1048460013640AD05D0E136007D012C00BF0010E80
:104856000C6E13508BEC22F0010E13640ED05B0E1F
:1048660013600BD03D0E1218D8A407D012C00BF05F
:10487600010E0C6E13508BEC22F0060E1318D8B4F2
:1048860040D00B0E1318D8B43CD0100E1318D8B461
:1048960038D0150E1318D8B434D01A0E1318D8B44D
:1048A60030D01F0E1318D8B42CD0240E1318D8B439
:1048B60028D0290E1318D8B424D02E0E1318D8B425
:1048C60020D0330E1318D8B41CD0380E1318D8B411
:1048D60018D03D0E1318D8B414D0420E1318D8B4FD
:1048E60010D0470E1318D8B40CD04C0E1318D8B4E9
:1048F60008D0510E1318D8B404D0560E1318D8A4E5
:1049060007D012C00BF0010E0C6E13508BEC22F088
:10491600060E1218D8B428D00B0E1218D8B424D00C
:10492600100E1218D8B420D0150E1218D8B41CD0F8
:104936001A0E1218D8B418D01F0E1218D8B414D0E4
:10494600240E1218D8B410D0290E1218D8B40CD0D0
:104956002E0E1218D8B408D0330E1218D8B404D0BC
:10496600380E1218D8A40AD05C0E136007D012C0F5
:104976000BF0010E0C6E13508BEC22F0122A39D775
:10498600132A31D7286E000E2D6E4ED0000E2C6ED7
:10499600030E2C6401D048D02D50090D000E206E58
:1049A600010E216EF3502026F45021222C50020DC8
:1049B600F3502026F4502122010E2024D96E000E39
:1049C6002120DA6E2850DE18D8A42CD02D50090DDF
:1049D600000E206E010E216EF3502026F450212287
:1049E6002C50020DF3502024D96EF4502120DA6E9B
:1049F600FF0EDF6E2D50090D000E206E010E216E8A
:104A0600F3502026F45021222C50020DF35020267C
:104A1600F4502122010E2024D96E000E2120DA6ED8
:104A2600FF0EDF6E2C2AB4D72D50090D000EF3248D
:104A3600D96E010EF420DA6E630EDE18D8B43AD0C1
:104A4600A5D7000E296E030E296401D033D02D5050
:104A5600090D000E206E010E216EF3502026F45033
:104A660021222950020DF3502026F4502122010E56
:104A76002024D96E000E2120DA6E2850DE5CD8B0D4
:104A860017D02D50090D000E206E010E216EF35029
:104A96002026F45021222950020DF3502026F450EE
:104AA6002122010E2024D96E000E2120DA6EDF2A83
:104AB600292AC9D72D50090D000EF324D96E010EEF
:104AC600F420DA6E630EDE18D8A4BBD728C02AF00D
:104AD6002A50D8B439D0000E2B6E100E2B6401D09C
:104AE60031D02B500C0DFF0E206EFF0E216E2A507A
:104AF600226E236A2050222621502322000E246E85
:104B0600020E256E2250242623502522F3502424FB
:104B1600D96EF4502520DA6E2B500C0D000E266E41
:104B2600020E276EF3502626F45027222A50010D36
:104B3600F3502624E16EF4502720E26EDFCFE7FF24
:104B46002B2ACBD72A06C4D7310EABEC25F01200A0
:104B5600176E000E1C6E44D1000E1D6E030E1D64F2
:104B660028D03DD1020E21D0070E1FD00C0E1DD02D
:104B7600110E1BD0160E19D01B0E17D0200E15D0F5
:104B8600250E13D02A0E11D02F0E0FD0340E0DD0B5
:104B9600390E0BD03E0E09D0430E07D0480E05D075
:104BA6004D0E03D0520E01D0570E1F6E67D01F68F0
:104BB60065D01C50090D000E126E010E136EF350D7
:104BC6001226F45013221D50020DF3501224D96EF2
:104BD600F4501320DA6EDF50000AD8B4C3D7010AA6
:104BE600D8B4C2D7030AD8B4C1D7010AD8B4C0D73B
:104BF600070AD8B4BFD7010AD8B4BED7030AD8B4B7
:104C0600BDD7010AD8B4BCD70F0AD8B4BBD7010A9E
:104C1600D8B4BAD7030AD8B4B9D7010AD8B4B8D722
:104C2600070AD8B4B7D7010AD8B4B6D7030AD8B496
:104C3600B5D7010AD8B4B4D71F0AD8B4B3D7010A76
:104C4600D8B4B2D7B4D7020E15D0070E13D00C0EB7
:104C560011D0110E0FD0160E0DD01B0E0BD0200E3C
:104C660009D0250E07D02A0E05D02F0E03D0340EFC
:104C760001D0390E1E6E3ED01E683CD01C50090D68
:104C8600000E126E010E136EF3501226F45013220C
:104C96001D50020DF3501226F4501322010E122459
:104CA600D96E000E1320DA6EDF50000AD8B4CBD7C7
:104CB600010AD8B4CAD7030AD8B4C9D7010AD8B4E6
:104CC600C8D7070AD8B4C7D7010AD8B4C6D7030AC3
:104CD600D8B4C5D7010AD8B4C4D70F0AD8B4C3D735
:104CE600010AD8B4C2D7030AD8B4C1D7010AD8B4C6
:104CF600C0D7C2D7310E1718D8A438D01FC018F0A5
:104D060020D01EC019F008D019C00BF0010E0C6E91
:104D160018508BEC22F0192A1E50126E136A040EDC
:104D26001226000E13221950146E156A1250145CC6
:104D36001550800A166E1350800A1658D8A0E4D76C
:104D4600182A1F50126E136A040E1226000E132222
:104D56001850146E156A1250145C1550800A166E9F
:104D66001350800A1658D8B038D0CBD71FC01AF0C7
:104D760020D01EC01BF008D01BC00BF0000E0C6E1E
:104D86001A508BEC22F01B2A1E50126E136A040E68
:104D96001226000E13221B50146E156A1250145C54
:104DA6001550800A166E1350800A1658D8A0E4D7FC
:104DB6001A2A1F50126E136A040E1226000E1322B0
:104DC6001A50146E156A1250145C1550800A166E2D
:104DD6001350800A1658D8A0CCD71D2ABFD61C2A35
:104DE6001C50090D000EF324D96E010EF420DA6E64
:104DF600630EDE18D8B41200AFD61E6E1E50090D13
:104E0600060EF326000EF422000EF324D96E010ED0
:104E1600F420DA6EDF501B6E1E50090D070EF326C6
:104E2600000EF422000EF324D96E010EF420DA6E81
:104E3600DF501C6E000E1F6E030E1F6401D0BCD027
:104E46001E50090D000E086E010E096EF35008265D
:104E5600F45009221F50020DF3500824D96EF45065
:104E66000920DA6EDF50186E1E50090D000E086E0E
:104E7600010E096EF3500826F45009221F50020D48
:104E8600F3500826F4500922010E0824D96E000EAC
:104E96000920DA6EDF50196E1F50010D100EF32433
:104EA600D96E000EF420DA6E1C5000081B2419245B
:104EB600DF6E1F50086E096A010E0826000E0922D1
:104EC600100E0824D96E000E0920DA6E185000085C
:104ED6001B241C24DF6E1F50010D100EF324D96E07
:104EE600000EF420DA6E120EDF6061D01F50086EDD
:104EF600096A010E0826000E0922100E0824D96E32
:104F0600000E0920DA6E0C0EDF6051D01F50010D25
:104F1600100EF324D96E000EF420DA6EDF50086E00
:104F260008500C0D000E096E020E0A6EF35009268B
:104F3600F4500A221F500B6E0C6A010E0B26000E4F
:104F46000C22100E0B24D96E000E0C20DA6EDF50E8
:104F56000D6E0D50010DF3500924D96EF4500A2040
:104F6600DA6E310EDE18D8A41FD01F50010D100EB8
:104F7600F324D96E000EF420DA6EDF50016E1F5056
:104F8600086E096A010E0826000E0922100E082472
:104F9600D96E000E0920DA6EDF50026E1E500CEC40
:104FA60022F00009D8B403D0010E1A6E03D0000E09
:104FB6001A6E02D01F2A40D71A50D8B41200000E1B
:104FC6001D6E030E1D6401D012001E50090D000E49
:104FD600086E010E096EF3500826F45009221D5082
:104FE600020DF3500824D96EF4500920DA6EDF5012
:104FF6000A6E0A500C0D000E0B6E020E0C6EF3506C
:105006000B26F4500C221E50090D000E0D6E010EDB
:105016000E6EF3500D26F4500E221D50020DF35065
:105026000D26F4500E22010E0D24D96E000E0E2010
:10503600DA6EDF500F6E0F50010DF3500B24D96E50
:10504600F4500C20DA6E300EDF6E1D50010D100E7E
:10505600F324D96E000EF420DA6E1E50090D000EF0
:10506600086E010E096EF3500826F45009221D50F1
:10507600020DF3500824E16EF4500920E26EDFCFF2
:10508600E7FF1D50086E096A010E0826000E092268
:10509600100E0824D96E000E0920DA6E1E50090D76
:1050A600000E0A6E010E0B6EF3500A26F4500B2208
:1050B6001D50020DF3500A26F4500B22010E0A244D
:1050C600E16E000E0B20E26EDFCFE7FF1E50090DEA
:1050D600000E086E010E096EF3500826F4500922E0
:1050E6001D50020DF3500824D96EF4500920DA6ED3
:1050F600DF500A6E0A500C0D000E0B6E020E0C6E7F
:10510600F3500B26F4500C221E50090D000E0D6EA6
:10511600010E0E6EF3500D26F4500E221D50020D98
:10512600F3500D26F4500E22010E0D24D96E000EFA
:105136000E20DA6EDF500F6E0F50010DF3500B2468
:10514600D96EF4500C20DA6E310EDF6E1D2A39D777
:10515600186E000E176E030E176401D0DED01728E6
:10516600146E030E146401D0D6D01850090D000E2B
:10517600086E010E096EF3500826F45009221750E6
:10518600020DF3500824D96EF4500920DA6E185037
:10519600090D000E0B6E010E0C6EF3500B26F4502B
:1051A6000C221450020DF3500B24E16EF4500C2027
:1051B600E26EDE50E65CD8B0ACD01850090D000E99
:1051C600086E010E096EF3500826F4500922175096
:1051D600020DF3500826F4500922010E0824D96E58
:1051E600000E0920DA6EDF50116E1850090D000E00
:1051F600086E010E096EF3500826F4500922175066
:10520600020DF3500824D96EF4500920DA6EDF50EF
:10521600126E1850090D000E086E010E096EF3503D
:105226000826F45009221450020DF3500826F450B3
:105236000922010E0824D96E000E0920DA6E1850D4
:10524600090D000E0A6E010E0B6EF3500A26F4507D
:105256000B221750020DF3500A26F4500B22010EB2
:105266000A24E16E000E0B20E26EDFCFE7FF185036
:10527600090D000E086E010E096EF3500826F45053
:1052860009221450020DF3500824D96EF450092057
:10529600DA6E1850090D000E0A6E010E0B6EF350F1
:1052A6000A26F4500B221750020DF3500A24E16E21
:1052B600F4500B20E26EDFCFE7FF1850090D000E09
:1052C600086E010E096EF3500826F4500922145098
:1052D600020DF3500826F4500922010E0824D96E57
:1052E600000E0920DA6E11C0DFFF1850090D000EFE
:1052F600086E010E096EF3500826F4500922145068
:10530600020DF3500824D96EF4500920DA6E12C04B
:10531600DFFF142A26D7172A1ED7000E156E030E96
:10532600156401D09DD01850090D000E086E010EAF
:10533600096EF3500826F45009221550020DF35059
:105346000824D96EF4500920DA6EDF50D8B483D021
:105356001850090D000E086E010E096EF35008264E
:10536600F45009221550020DF3500824D96EF4505A
:105376000920DA6EDF500A6EFF0E0A24016E026AF9
:10538600FF0E0222000E046E0C0E036E52EC20F08D
:10539600000E0B6E020E0C6E01500B2602500C22F4
:1053A6001850090D000E0D6E010E0E6EF3500D26EF
:1053B600F4500E221550020DF3500D26F4500E2215
:1053C600010E0D24D96E000E0E20DA6EDF500F6E20
:1053D6000F50010DF3500B24D96EF4500C20DA6EE9
:1053E600310EDE18D8A434D01850090D000E086E00
:1053F600010E096EF3500826F45009221550020DCD
:10540600F3500824D96EF4500920DA6EDF500A6E84
:105416000A04016E1850090D000E0B6E010E0C6E7B
:10542600F3500B26F4500C221550020DF3500B26A8
:10543600F4500C22010E0B24D96E000E0C20DA6EED
:10544600DF50026E18500CEC22F00009D8B403D0DD
:10545600010E136E03D0000E136E02D0152A5FD70D
:105466001304D8A41200000E166E030E166401D0A3
:1054760012001850090D000E086E010E096EF35049
:105486000826F45009221650020DF3500824D96E4E
:10549600F4500920DA6EDF500A6E0A500C0D000E29
:1054A6000B6E020E0C6EF3500B26F4500C221850A5
:1054B600090D000E0D6E010E0E6EF3500D26F45002
:1054C6000E221650020DF3500D26F4500E22010E38
:1054D6000D24D96E000E0E20DA6EDF500F6E0F50BF
:1054E600010DF3500B24D96EF4500C20DA6E300EF9
:1054F600DF6E1850090D000E086E010E096EF3508E
:105506000826F45009221650020DF3500824D96ECD
:10551600F4500920DA6EDF061850090D000E086EE9
:10552600010E096EF3500826F45009221650020D9A
:10553600F3500824D96EF4500920DA6EDF500A6E53
:105546000A500C0D000E0B6E020E0C6EF3500B265D
:10555600F4500C221850090D000E0D6E010E0E6E41
:10556600F3500D26F4500E221650020DF3500D2660
:10557600F4500E22010E0D24D96E000E0E20DA6EA6
:10558600DF500F6E0F50010DF3500B24D96EF450FF
:105596000C20DA6E310EDF6E162A67D7186E000EF3
:1055A600176E030E176401D0DED01728146E030E93
:1055B600146401D0D6D01850090D000E086E010EE5
:1055C600096EF3500826F45009221450020DF350C8
:1055D6000824D96EF4500920DA6E1850090D000E11
:1055E6000B6E010E0C6EF3500B26F4500C22175066
:1055F600020DF3500B24E16EF4500C20E26EDE50E7
:10560600E65CD8B0ACD01850090D000E086E010E3D
:10561600096EF3500826F45009221750020DF35074
:105626000826F4500922010E0824D96E000E09201E
:10563600DA6EDF50116E1850090D000E086E010E5D
:10564600096EF3500826F45009221750020DF35044
:105656000824D96EF4500920DA6EDF50126E185005
:10566600090D000E086E010E096EF3500826F4505F
:1056760009221450020DF3500826F4500922010E97
:105686000824D96E000E0920DA6E1850090D000E96
:105696000A6E010E0B6EF3500A26F4500B221750B9
:1056A600020DF3500A26F4500B22010E0A24E16E75
:1056B600000E0B20E26EDFCFE7FF1850090D000E3B
:1056C600086E010E096EF3500826F4500922145094
:1056D600020DF3500824D96EF4500920DA6E1850E2
:1056E600090D000E0A6E010E0B6EF3500A26F450D9
:1056F6000B221750020DF3500A24E16EF4500B20D2
:10570600E26EDFCFE7FF1850090D000E086E010E9E
:10571600096EF3500826F45009221450020DF35076
:105726000826F4500922010E0824D96E000E09201D
:10573600DA6E11C0DFFF1850090D000E086E010E5B
:10574600096EF3500826F45009221450020DF35046
:105756000824D96EF4500920DA6E12C0DFFF142A2D
:1057660026D7172A1ED7000E156E030E156401D014
:105776009DD01850090D000E086E010E096EF350EB
:105786000826F45009221550020DF3500824D96E4C
:10579600F4500920DA6E110EDF6083D01850090D1F
:1057A600000E086E010E096EF3500826F450092209
:1057B6001550020DF3500824D96EF4500920DA6E04
:1057C600DF500A6E010E0A24016E026A000E0222E2
:1057D600000E046E0C0E036E52EC20F0000E0B6EE3
:1057E600020E0C6E01500B2602500C221850090DA9
:1057F600000E0D6E010E0E6EF3500D26F4500E22A5
:105806001550020DF3500D26F4500E22010E0D24F4
:10581600D96E000E0E20DA6EDF500F6E0F50010D9E
:10582600F3500B24D96EF4500C20DA6E310EDE18CC
:10583600D8A434D01850090D000E086E010E096E5A
:10584600F3500826F45009221550020DF35008248F
:10585600D96EF4500920DA6EDF500A6E0A28016EFE
:105866001850090D000E0B6E010E0C6EF3500B2630
:10587600F4500C221550020DF3500B26F4500C2256
:10588600010E0B24D96E000E0C20DA6EDF50026E6C
:1058960018500CEC22F00009D8B403D0010E136E98
:1058A60003D0000E136E02D0152A5FD71304D8A4B6
:1058B6001200000E166E030E166401D01200185068
:1058C600090D000E086E010E096EF3500826F450FD
:1058D60009221650020DF3500824D96EF4500920FF
:1058E600DA6EDF500A6E0A500C0D000E0B6E020EB9
:1058F6000C6EF3500B26F4500C221850090D000EB6
:105906000D6E010E0E6EF3500D26F4500E2216503B
:10591600020DF3500D26F4500E22010E0D24D96E01
:10592600000E0E20DA6EDF500F6E0F50010DF35091
:105936000B24D96EF4500C20DA6E300EDF6E185040
:10594600090D000E086E010E096EF3500826F4507C
:1059560009221650020DF3500824D96EF45009207E
:10596600DA6EDF2A1850090D000E086E010E096E58
:10597600F3500826F45009221650020DF35008245D
:10598600D96EF4500920DA6EDF500A6E0A500C0DFB
:10599600000E0B6E020E0C6EF3500B26F4500C220A
:1059A6001850090D000E0D6E010E0E6EF3500D26E9
:1059B600F4500E221650020DF3500D26F4500E220E
:1059C600010E0D24D96E000E0E20DA6EDF500F6E1A
:1059D6000F50010DF3500B24D96EF4500C20DA6EE3
:1059E600310EDF6E162A67D71A6E000E196E030E79
:1059F600196401D0E6D01928166E030E166401D07C
:105A0600DED01A50090D000E086E010E096EF35015
:105A16000826F45009221650020DF3500826F450B9
:105A26000922010E0824D96E000E0920DA6E1A50DA
:105A3600090D000E0B6E010E0C6EF3500B26F45082
:105A46000C221950020DF3500B26F4500C22010EB5
:105A56000B24E16E000E0C20E26EDE50E65CD8B040
:105A6600ACD01A50090D000E086E010E096EF350E7
:105A76000826F45009221950020DF3500826F45056
:105A86000922010E0824D96E000E0920DA6EDF50B5
:105A9600126E1A50090D000E086E010E096EF350B3
:105AA6000826F45009221950020DF3500824D96E25
:105AB600F4500920DA6EDF50136E1A50090D000EED
:105AC600086E010E096EF3500826F450092216508E
:105AD600020DF3500826F4500922010E0824D96E4F
:105AE600000E0920DA6E1A50090D000E0A6E010E1C
:105AF6000B6EF3500A26F4500B221950020DF35088
:105B06000A26F4500B22010E0A24E16E000E0B2029
:105B1600E26EDFCFE7FF1A50090D000E086E010E88
:105B2600096EF3500826F45009221650020DF35060
:105B36000824D96EF4500920DA6E1A50090D000EA9
:105B46000A6E010E0B6EF3500A26F4500B22195002
:105B5600020DF3500A24E16EF4500B20E26EDFCF03
:105B6600E7FF1A50090D000E086E010E096EF3507C
:105B76000826F45009221650020DF3500826F45058
:105B86000922010E0824D96E000E0920DA6E12C011
:105B9600DFFF1A50090D000E086E010E096EF35054
:105BA6000826F45009221650020DF3500824D96E27
:105BB600F4500920DA6E13C0DFFF162A1ED7192A01
:105BC60016D7000E176E030E176401D09AD01A501E
:105BD600090D000E086E010E096EF3500826F450EA
:105BE60009221750020DF3500826F4500922010E1F
:105BF6000824D96E000E0920DA6E0B0EDF607CD009
:105C06001A50090D000E086E010E096EF350082693
:105C1600F45009221750020DF3500826F4500922B9
:105C2600010E0824D96E000E0920DA6EDF500A6EC6
:105C36000B6A010E0A26000E0B22000E0C6E020ED7
:105C46000D6E0A500C260B500D221A50090D000E2F
:105C56000E6E010E0F6EF3500E26F4500F221750E3
:105C6600020DF3500E24D96EF4500F20DA6EDF5079
:105C7600106E10500C0DF3500C24D96EF4500D20FC
:105C8600DA6E310EDE18D8A434D01A50090D000E83
:105C9600086E010E096EF3500826F45009221750BB
:105CA600020DF3500824D96EF4500920DA6EDF5045
:105CB600016E1A50090D000E0A6E010E0B6EF3509E
:105CC6000A26F4500B221750020DF3500A26F45000
:105CD6000B22010E0A24D96E000E0B20DA6EDF505D
:105CE6000C6E0C28026E1A500CEC22F00009D8B487
:105CF60003D0010E146E03D0000E146E02D0172AC4
:105D060062D71404D8A4A1D0000E186E030E18642E
:105D160001D099D01A50090D000E086E010E096EB9
:105D2600F3500826F45009221850020DF3500824A7
:105D3600D96EF4500920DA6EDF500A6E0A500C0D47
:105D4600000E0B6E020E0C6EF3500B26F4500C2256
:105D56001A50090D000E0D6E010E0E6EF3500D2633
:105D6600F4500E221850020DF3500D26F4500E2258
:105D7600010E0D24D96E000E0E20DA6EDF500F6E66
:105D86000F50010DF3500B24D96EF4500C20DA6E2F
:105D9600300EDF6E1A50090D000E086E010E096EE8
:105DA600F3500826F45009221850020DF350082625
:105DB600F4500922010E0824D96E000E0920DA6E6D
:105DC600DF2A1A50090D000E086E010E096EF350F7
:105DD6000826F45009221850020DF3500824D96EF3
:105DE600F4500920DA6EDF500A6E0A500C0D000ED0
:105DF6000B6E020E0C6EF3500B26F4500C221A504A
:105E0600090D000E0D6E010E0E6EF3500D26F450A8
:105E16000E221850020DF3500D26F4500E22010EDC
:105E26000D24D96E000E0E20DA6EDF500F6E0F5065
:105E3600010DF3500B24D96EF4500C20DA6E310E9E
:105E4600DF6E182A63D7000E1200000E156E030EC1
:105E5600156401D01DD01A50090D000E086E010EF2
:105E6600096EF3500826F45009221550020DF3501E
:105E76000826F4500922010E0824D96E000E0920C6
:105E8600DA6EDF50D8A402D0FF0E1200152ADFD733
:105E9600010E1200346ED9EC20F00DC00FF00EC0CA
:105EA60010F0000E126E070E116E9AEC21F00F28FC
:105EB6001D6ED9EC20F00D50030B336E3BEF39F01D
:105EC6003450090D080EF326000EF422000EF324BA
:105ED600D96E010EF420DA6E000EDF6E080E2F6EFC
:105EE600000E1E6E030E1E6402D055EF39F03450BC
:105EF600090D000E156E010E166EF3501526F450A0
:105F060016221E50020DF3501524D96EF450162099
:105F1600DA6E2FC0DFFF3450090D000E156E010E2C
:105F2600166EF3501526F45016221E50020DF3502D
:105F36001526F4501622010E1524D96E000E1620D1
:105F4600DA6E000EDF6E2F2A1E2ACCD73450090DCA
:105F5600080EF326000EF422000EF324D96E010E6D
:105F6600F420DA6E010EDF6E080E2F6E000E1F6E25
:105F7600030E1F6402D055EF39F03450090D000EA0
:105F8600156E010E166EF3501526F45016221F508C
:105F9600020DF3501524D96EF4501620DA6E2FC078
:105FA600DFFF3450090D000E156E010E166EF3500C
:105FB6001526F45016221F50020DF3501526F450E4
:105FC6001622010E1524D96E000E1620DA6E010E69
:105FD600DF6E2F2A1F2ACCD73450090D080EF32660
:105FE600000EF422000EF324D96E010EF420DA6EB0
:105FF600020EDF6E000E2F6E000E206E030E206462
:1060060002D055EF39F03450090D000E156E010E11
:10601600166EF3501526F45016222050020DF3503A
:106026001524D96EF4501620DA6E0A0EDF6E34503F
:10603600090D000E156E010E166EF3501526F4505E
:1060460016222050020DF3501526F4501622010E8A
:106056001524D96E000E1620DA6E2FC0DFFF2F2A08
:10606600202ACCD73450090D080EF326000EF42250
:10607600000EF324D96E010EF420DA6E030EDF6EE5
:10608600000E2F6E000E216E030E216402D055EF16
:1060960039F03450090D000E156E010E166EF350D0
:1060A6001526F45016222150020DF3501524D96EF0
:1060B600F4501620DA6E0B0EDF6E3450090D000E0A
:1060C600156E010E166EF3501526F4501622215049
:1060D600020DF3501526F4501622010E1524D96E22
:1060E600000E1620DA6E2FC0DFFF2F2A212ACCD70A
:1060F6003350000AD8B4E4D6010AD8B427D7030A25
:10610600D8B46AD7010AD8B4ADD755EF39F03450B0
:10611600090D080EF326000EF422000EF324D96EA4
:10612600010EF420DA6E000EDF6E0A0E306E345069
:10613600090D000EF324D96E010EF420DA6E0A0E54
:10614600DF6E3450090D010EF326000EF422000E08
:10615600F324D96E010EF420DA6E000EDF6E010E06
:10616600226E030E226402D055EF39F03450090D29
:10617600000E156E010E166EF3501526F4501622FB
:106186002250020DF3501524D96EF4501620DA6E03
:1061960030C0DFFF3450090D000E156E010E166E6D
:1061A600F3501526F45016222250020DF3501526F0
:1061B600F4501622010E1524D96E000E1620DA6E42
:1061C600010EDF6E302A222ACCD73450090D080E74
:1061D600F326000EF422000EF324D96E010EF420ED
:1061E600DA6E010EDF6E0A0E306E3450090D000EA7
:1061F600F324D96E010EF420DA6E0C0EDF6E3450E5
:10620600090D010EF326000EF422000EF324D96EBA
:10621600010EF420DA6E020EDF6E010E236E030EFF
:10622600236402D055EF39F03450090D000E156E77
:10623600010E166EF3501526F45016222350020D49
:10624600F3501524D96EF4501620DA6E30C0DFFFF5
:106256003450090D000E156E010E166EF3501526FC
:10626600F45016222350020DF3501526F450162230
:10627600010E1524D96E000E1620DA6E010EDF6EA1
:10628600302A232ACCD73450090D080EF326000EE7
:10629600F422000EF324D96E010EF420DA6E020EFB
:1062A600DF6E000E306E3450090D000EF324D96EE9
:1062B600010EF420DA6E0A0EDF6E3450090D010E5F
:1062C600F326000EF422000EF324D96E010EF420FC
:1062D600DA6E020EDF6E010E246E030E246402D007
:1062E60055EF39F03450090D000E156E010E166E7D
:1062F600F3501526F45016222450020DF35015249F
:10630600D96EF4501620DA6E0B0EDF6E3450090D7E
:10631600000E156E010E166EF3501526F450162259
:106326002450020DF3501526F4501622010E1524A2
:10633600D96E000E1620DA6E30C0DFFF302A242A0E
:10634600CCD73450090D080EF326000EF422000EA9
:10635600F324D96E010EF420DA6E030EDF6E000E02
:10636600306E3450090D000EF324D96E010EF42060
:10637600DA6E0C0EDF6E3450090D010EF326000E98
:10638600F422000EF324D96E010EF420DA6E000E0C
:10639600DF6E010E256E030E256402D055EF39F02F
:1063A6003450090D000E156E010E166EF3501526AB
:1063B600F45016222550020DF3501524D96EF450D0
:1063C6001620DA6E0B0EDF6E3450090D000E156EB8
:1063D600010E166EF3501526F45016222550020DA6
:1063E600F3501526F4501622010E1524D96E000E10
:1063F6001620DA6E30C0DFFF302A252ACCD733507C
:10640600000AD8B484D6010AD8B4DFD6030AD8B4B1
:106416003AD7010AD8B495D755EF39F03450090D5B
:10642600080EF326000EF422000EF324D96E010E98
:10643600F420DA6E000EDF6E0A0E316E3450090D4E
:10644600000EF324D96E010EF420DA6E0C0EDF6E08
:106456003450090D010EF326000EF422000EF3242B
:10646600D96E010EF420DA6E000EDF6E010E266E76
:10647600030E266402D055EF39F03450090D000E94
:10648600156E010E166EF3501526F4501622265080
:10649600020DF3501524D96EF4501620DA6E31C071
:1064A600DFFF3450090D000E156E010E166EF35007
:1064B6001526F45016222650020DF3501526F450D8
:1064C6001622010E1524D96E000E1620DA6E010E64
:1064D600DF6E312A262ACCD73450090D080EF32652
:1064E600000EF422000EF324D96E010EF420DA6EAB
:1064F600010EDF6E0A0E316E3450090D000EF324C4
:10650600D96E010EF420DA6E0A0EDF6E3450090DD4
:10651600010EF326000EF422000EF324D96E010EAE
:10652600F420DA6E020EDF6E010E276E030E27646C
:1065360002D055EF39F03450090D000E156E010EDC
:10654600166EF3501526F45016222750020DF350FE
:106556001524D96EF4501620DA6E31C0DFFF3450A0
:10656600090D000E156E010E166EF3501526F45029
:1065760016222750020DF3501526F4501622010E4E
:106586001524D96E000E1620DA6E010EDF6E312A42
:10659600272ACCD73450090D080EF326000EF42214
:1065A600000EF324D96E010EF420DA6E020EDF6EB1
:1065B600000E316E3450090D000EF324D96E010E13
:1065C600F420DA6E0A0EDF6E3450090D010EF32642
:1065D600000EF422000EF324D96E010EF420DA6EBA
:1065E600000EDF6E010E286E030E286402D055EFF2
:1065F60039F03450090D000E156E010E166EF3506B
:106606001526F45016222850020DF3501524D96E83
:10661600F4501620DA6E0B0EDF6E3450090D000EA4
:10662600156E010E166EF3501526F45016222850DC
:10663600020DF3501526F4501622010E1524D96EBC
:10664600000E1620DA6E31C0DFFF312A282ACCD799
:106656003450090D080EF326000EF422000EF32422
:10666600D96E010EF420DA6E030EDF6E000E316E67
:106676003450090D000EF324D96E010EF420DA6EA3
:106686000C0EDF6E3450090D010EF326000EF422B7
:10669600000EF324D96E010EF420DA6E020EDF6EC0
:1066A600010E296E030E296402D055EF39F03450DD
:1066B600090D000E156E010E166EF3501526F450D8
:1066C60016222950020DF3501524D96EF4501620C7
:1066D600DA6E0B0EDF6E3450090D000E156E010ECC
:1066E600166EF3501526F45016222950020DF3505B
:1066F6001526F4501622010E1524D96E000E16200A
:10670600DA6E31C0DFFF312A292ACCD73350000A8E
:10671600D8B484D6010AD8B4DFD6030AD8B43AD797
:10672600010AD8B495D755EF39F03450090D000E4B
:10673600F324D96E010EF420DA6E0B0EDF6E3450A0
:10674600090D010EF326000EF422000EF324D96E75
:10675600010EF420DA6E000EDF6E3450090D020EC3
:10676600F326000EF422000EF324D96E010EF42057
:10677600DA6E0C0EDF6E3450090D030EF326000E92
:10678600F422000EF324D96E010EF420DA6E000E08
:10679600DF6E3450090D040EF326000EF422000EAF
:1067A600F324D96E010EF420DA6E0B0EDF6E345030
:1067B600090D050EF326000EF422000EF324D96E01
:1067C600010EF420DA6E010EDF6E3450090D060E4E
:1067D600F326000EF422000EF324D96E010EF420E7
:1067E600DA6E0C0EDF6E3450090D070EF326000E1E
:1067F600F422000EF324D96E010EF420DA6E010E97
:10680600DF6E2AD03450090D080EF326000EF4224E
:10681600000EF324D96E010EF420DA6E000ED4D3E6
:106826003450090D080EF326000EF422000EF32450
:10683600D96E010EF420DA6E010EC6D33450090D5E
:10684600080EF326000EF422000EF324D96E010E74
:10685600F420DA6E020EB8D33350000AD8B4D2D779
:10686600010AD8B4DDD7030AD8B4E8D7010AD8B4E8
:106876001FEF39F055EF39F03450090D080EF326A5
:10688600000EF422000EF324D96E010EF420DA6E07
:10689600000EDF6E3450090D000EF324D96E010E82
:1068A600F420DA6E0A0EDF6E3450090D010EF3265F
:1068B600000EF422000EF324D96E010EF420DA6ED7
:1068C600010EDF6E3450090D020EF326000EF4227F
:1068D600000EF324D96E010EF420DA6E0B0EDF6E75
:1068E6003450090D030EF326000EF422000EF32495
:1068F600D96E010EF420DA6E010EDF6E3450090DEA
:10690600040EF326000EF422000EF324D96E010EB7
:10691600F420DA6E0B0EDF6E3450090D050EF326E9
:10692600000EF422000EF324D96E010EF420DA6E66
:10693600000EDF6E3450090D060EF326000EF4220B
:10694600000EF324D96E010EF420DA6E0C0EDF6E03
:106956003450090D070E59D73450090D000EF32493
:10696600D96E010EF420DA6E0A0EDF6E3450090D70
:10697600010EF326000EF422000EF324D96E010E4A
:10698600F420DA6E020EDF6E3450090D020EF32685
:10699600000EF422000EF324D96E010EF420DA6EF6
:1069A6000B0EDF6E3450090D030EF326000EF42293
:1069B600000EF324D96E010EF420DA6E020EDF6E9D
:1069C6003450090D040EF326000EF422000EF324B3
:1069D600D96E010EF420DA6E0B0EDF6E3450090DFF
:1069E600050EF326000EF422000EF324D96E010ED6
:1069F600F420DA6E010EDF6E3450090D060EF32612
:106A0600000EF422000EF324D96E010EF420DA6E85
:106A16000C0EDF6E3450090D070EF326000EF4221D
:106A2600000EF324D96E010EF420DA6E010EDF6E2D
:106A3600F7D63450090D000EF324D96E010EF4205A
:106A4600DA6E0A0EDF6E3450090D010EF326000EC3
:106A5600F422000EF324D96E010EF420DA6E000E35
:106A6600DF6E3450090D020EF326000EF422000EDE
:106A7600F324D96E010EF420DA6E0A0EDF6E34505E
:106A8600090D030EF326000EF422000EF324D96E30
:106A9600010EF420DA6E010EDF6E3450090D040E7D
:106AA600F326000EF422000EF324D96E010EF42014
:106AB600DA6E0B0EDF6E3450090D050EF326000E4E
:106AC600F422000EF324D96E010EF420DA6E010EC4
:106AD600DF6E3450090D060EF326000EF422000E6A
:106AE600F324D96E010EF420DA6E0B0EDF6E3450ED
:106AF600090D070EF326000EF422000EF324D96EBC
:106B0600010EF420DA6E020EDF6E98D63450090DAF
:106B1600000EF324D96E010EF420DA6E0B0EDF6E32
:106B26003450090D010EF326000EF422000EF32454
:106B3600D96E010EF420DA6E000EDF6E3450090DA8
:106B4600020EF326000EF422000EF324D96E010E77
:106B5600F420DA6E0B0EDF6E3450090D030EF326A9
:106B6600000EF422000EF324D96E010EF420DA6E24
:106B7600010EDF6E3450090D040EF326000EF422CA
:106B8600000EF324D96E010EF420DA6E0C0EDF6EC1
:106B96003450090D050EF326000EF422000EF324E0
:106BA600D96E010EF420DA6E010EDF6E3450090D37
:106BB600060EF326000EF422000EF324D96E010E03
:106BC600F420DA6E0C0E29D33350000AD8B454D60A
:106BD600010AD8B4C1D6030AD8B42BD7010AD8B44F
:106BE60095D760D33450090D080EF326000EF42213
:106BF600000EF324D96E010EF420DA6E000EDF6E5D
:106C06000A0E326E3450090D000EF324D96E010EB1
:106C1600F420DA6E0B0EDF6E3450090D010EF326EA
:106C2600000EF422000EF324D96E010EF420DA6E63
:106C3600000EDF6E010E2A6E030E2A6401D032D3D7
:106C46003450090D000E156E010E166EF350152602
:106C5600F45016222A50020DF3501524D96EF45022
:106C66001620DA6E32C0DFFF3450090D000E156EA5
:106C7600010E166EF3501526F45016222A50020DF8
:106C8600F3501526F4501622010E1524D96E000E67
:106C96001620DA6E010EDF6E322A2A2ACDD734503C
:106CA600090D080EF326000EF422000EF324D96E09
:106CB600010EF420DA6E010EDF6E0A0E326E3450CB
:106CC600090D000EF324D96E010EF420DA6E0B0EB8
:106CD600DF6E3450090D010EF326000EF422000E6D
:106CE600F324D96E010EF420DA6E020EDF6E010E69
:106CF6002B6E030E2B6401D0D5D23450090D000E35
:106D0600156E010E166EF3501526F45016222B50F2
:106D1600020DF3501524D96EF4501620DA6E32C0E7
:106D2600DFFF3450090D000E156E010E166EF3507E
:106D36001526F45016222B50020DF3501526F4504A
:106D46001622010E1524D96E000E1620DA6E010EDB
:106D5600DF6E322A2B2ACDD73450090D080EF326C2
:106D6600000EF422000EF324D96E010EF420DA6E22
:106D7600020EDF6E000E326E3450090D000EF32443
:106D8600D96E010EF420DA6E0A0EDF6E3450090D4C
:106D9600010EF326000EF422000EF324D96E010E26
:106DA600F420DA6E010EDF6E010E2C6E030E2C64DB
:106DB60001D078D23450090D000E156E010E166EF4
:106DC600F3501526F45016222C50020DF3501524BC
:106DD600D96EF4501620DA6E0B0EDF6E3450090DA4
:106DE600000E156E010E166EF3501526F45016227F
:106DF6002C50020DF3501526F4501622010E1524C0
:106E0600D96E000E1620DA6E32C0DFFF322A2C2A27
:106E1600CDD73450090D080EF326000EF422000ECD
:106E2600F324D96E010EF420DA6E030EDF6E000E27
:106E3600326E3450090D000EF324D96E010EF42083
:106E4600DA6E0C0EDF6E3450090D010EF326000EBD
:106E5600F422000EF324D96E010EF420DA6E010E30
:106E6600DF6E010E2D6E030E2D6401D01BD2345041
:106E7600090D000E156E010E166EF3501526F45010
:106E860016222D50020DF3501524D96EF4501620FB
:106E9600DA6E0B0EDF6E3450090D000E156E010E04
:106EA600166EF3501526F45016222D50020DF3508F
:106EB6001526F4501622010E1524D96E000E162042
:106EC600DA6E32C0DFFF322A2D2ACDD73350000AC0
:106ED600D8B488D6010AD8B4E2D6030AD8B43CD7C7
:106EE600010AD8B496D7DED13450090D080EF32620
:106EF600000EF422000EF324D96E010EF420DA6E91
:106F0600000EDF6E3450090D000EF324D96E010E0B
:106F1600F420DA6E0A0EDF6E3450090D010EF326E8
:106F2600000EF422000EF324D96E010EF420DA6E60
:106F3600000EDF6E3450090D020EF326000EF42209
:106F4600000EF324D96E010EF420DA6E0B0EDF6EFE
:106F56003450090D030EF326000EF422000EF3241E
:106F6600D96E010EF420DA6E000EDF6E3450090D74
:106F7600040EF326000EF422000EF324D96E010E41
:106F8600F420DA6E0B0EDF6E3450090D050EF32673
:106F9600000EF422000EF324D96E010EF420DA6EF0
:106FA600010EDF6E3450090D060EF326000EF42294
:106FB600000EF324D96E010EF420DA6E0C0EDF6E8D
:106FC6003450090D070E2FD4DF6E6CD13450090DE5
:106FD600000EF324D96E010EF420DA6E0A0EDF6E6F
:106FE6003450090D010EF326000EF422000EF32490
:106FF600D96E010EF420DA6E010EDF6E3450090DE3
:10700600020EF326000EF422000EF324D96E010EB2
:10701600F420DA6E0B0EDF6E3450090D030EF326E4
:10702600000EF422000EF324D96E010EF420DA6E5F
:10703600010EDF6E3450090D040EF326000EF42205
:10704600000EF324D96E010EF420DA6E0B0EDF6EFD
:107056003450090D050EF326000EF422000EF3241B
:10706600D96E010EF420DA6E020EDF6E3450090D71
:10707600060EF326000EF422000EF324D96E010E3E
:10708600F420DA6E0C0EDF6E3450090D070EF3266F
:10709600000EF422000EF324D96E010EF420DA6EEF
:1070A600020EC5D43450090D000EF324D96E010E1C
:1070B600F420DA6E0B0EDF6E3450090D010EF32646
:1070C600000EF422000EF324D96E010EF420DA6EBF
:1070D600000EDF6E3450090D020EF326000EF42268
:1070E600000EF324D96E010EF420DA6E0B0EDF6E5D
:1070F6003450090D030EF326000EF422000EF3247D
:10710600D96E010EF420DA6E010EDF6E3450090DD1
:10711600040EF326000EF422000EF324D96E010E9F
:10712600F420DA6E0A0EDF6E3450090D050EF326D2
:10713600000EF422000EF324D96E010EF420DA6E4E
:10714600010EDF6E3450090D060EF326000EF422F2
:10715600000EF324D96E010EF420DA6E0A0EC6D4A0
:107166003450090D000EF324D96E010EF420DA6EA8
:107176000C0EDF6E3450090D010EF326000EF422BC
:10718600000EF324D96E010EF420DA6E000EDF6EC7
:107196003450090D020EF326000EF422000EF324DD
:1071A600D96E010EF420DA6E0C0EDF6E3450090D26
:1071B600030EF326000EF422000EF324D96E010E00
:1071C600F420DA6E010EDF6E3450090D040EF3263C
:1071D600000EF422000EF324D96E010EF420DA6EAE
:1071E6000B0EDF6E3450090D050EF326000EF42249
:1071F600000EF324D96E010EF420DA6E010EDF6E56
:107206003450090D060EF326000EF422000EF32468
:10721600D96E010EF420DA6E0B0EDF6E3450090DB6
:10722600070EF326000EF422000EF324D96E010E8B
:10723600F420DA6E020EDF6E3450090D080EF326C6
:10724600000EF422000EF324D96E010EF420DA6E3D
:10725600030EBAD63350000AD8B446D6010AD8B4BB
:10726600B5D6030AD8B41ED7010AD8B479D71AD02E
:107276001D50010AD8B47BEF30F0030AD8B402EFF0
:1072860032F0010AD8B489EF33F0070AD8B498EF80
:1072960033F0010AD8B498D4030AD8B417D6010A31
:1072A600D8B4D8D7000E2E6E030E2E6401D012006D
:1072B6003450090D000E156E010E166EF35015268C
:1072C600F45016222E50020DF3501524D96EF450A8
:1072D6001620DA6EDF50176E17500C0D000E186E62
:1072E600020E196EF3501826F45019223450090D67
:1072F600000E1A6E010E1B6EF3501A26F4501B2256
:107306002E50020DF3501A26F4501B22010E1A2499
:10731600D96E000E1B20DA6EDF501C6E1C50010D5C
:10732600F3501824D96EF4501920DA6E310EDF6E40
:107336002E2ABAD70000000000000000000000005E
:107346000000000000000000000000000000000037
:107356000000000000000000000000000000000027
:107366000000000000000000000000000000000017
:107376000000000000000000000000000000000007
:1073860000000000000000000000000000000000F7
:1073960000000000000000000000000000000000E7
:1073A60000000000000000000000000000000000D7
:1073B60000000000000000000000000000000000C7
:1073C60000000000000000000000000000000000B7
:1073D60000000000000000000000000000000000A7
:1073E6000000000000000000000000000000000097
:1073F6000000000000000000000000000000000087
:107406000000000000000000000000000000000076
:107416000000000000000000000000000000000066
:107426000000000000000000000000000000000056
:107436000000000000000000000000000000065FE1
:107446005F060000000007070007070000147F7FA3
:10745600147F7F1400242E6B6B3A120000466630B0
:10746600180C666200307A4F5D377A4800040703CD
:107476000000000000001C3E634100000000416364
:107486003E1C000000082A3E1C1C3E2A0808083E36
:107496003E080800000080E06000000000080808C0
:1074A6000808080000000060600000000060301856
:1074B6000C060301003E7F71594D7F3E0040427F1E
:1074C6007F40400000627359496F6600002263499D
:1074D600497F360000181C16537F7F5000276745EA
:1074E600457D3900003C7E4B49793000000303712D
:1074F600790F070000367F49497F360000064F495D
:10750600693F1E000000006666000000000080E67D
:107516006600000000081C36634100000024242495
:107526002424240000004163361C08000002035195
:10753600590F0600003E7F415D5D1F1E007C7E13D5
:10754600137E7C0000417F7F49497F36001C3E63E5
:107556004141632200417F7F41633E1C00417F7FA2
:10756600495D416300417F7F491D0103001C3E6365
:1075760041517372007F7F08087F7F000000417FC2
:107586007F41000000307040417F3F0100417F7F16
:10759600081C776300417F7F41406070007F7F0E4B
:1075A6001C0E7F7F007F7F060C187F7F001C3E63CA
:1075B60041633E1C00417F7F49090F06001E3F21A3
:1075C600717F5E0000417F7F09197F6600266F4D3F
:1075D600597332000003417F7F410300007F7F40E3
:1075E600407F7F00001F3F60603F1F00007F7F30AD
:1075F60018307F7F0043673C183C674300074F788D
:10760600784F070000476371594D677300007F7F0D
:1076160041410000000103060C18306000004141A2
:107626007F7F000000080C0603060C08008080809F
:1076360080808080800000030704000000207454CE
:10764600543C784000417F3F4848783000387C44BD
:10765600446C280000307848493F7F4000387C540D
:10766600545C180000487E7F490302000098BCA4C1
:10767600A4F87C0400417F7F08047C780000447DE8
:107686007D4000000060E08080FD7D0000417F7F3E
:1076960010386C440000417F7F400000007C7C185D
:1076A600381C7C78007C7C04047C780000387C44A0
:1076B600447C38000084FCF8A4243C1800183C24C0
:1076C600A4F8FC8400447C784C041C1800485C54E4
:1076D600547424000000043E7F442400003C7C4097
:1076E600403C7C40001C3C60603C1C00003C7C70C4
:1076F60038707C3C00446C3810386C44009CBCA04C
:10770600A0FC7C00004C64745C4C64000008083EDD
:107716007741410000000000777700000041417783
:107726003E08080000020301030203010070784CC2
:10773600464C7870000E9F91B1FB4A00003A7A40A1
:10774600407A7A4000387C54555D19000002237552
:1077560055557D7B42217554547D794000217555E0
:10776600547C784000207457577C784000183CA41D
:10777600A4E4400000023B7D55555D1B02397D5453
:10778600545D190000397D55545C18000001457C94
:107796007C410100000203457D7D43020001457DD9
:1077A6007C40000000797D1612167D790070782BDA
:1077B6002B78700000447C7C55554500002074549D
:1077C600547C7C54547C7E0B097F7F4900327B4974
:1077D600497B320000327A48487A320000327A4ACF
:1077E60048783000003A7B41417B7A40003A7A4241
:1077F60040787840009ABAA0A0FA7A000001193CB5
:1078060066663C19013D7D40407D3D0000183C24E4
:10781600E7E7242400687E7F49436620002B2FFC7F
:10782600FC2F2B0000FFFF09092FF6F8A040C088A7
:10783600FE7F090302207454557D79400000447D83
:107846007D410000003078484A7A3200003878409E
:10785600427A7A40007A7A0A0A7A7000007D7D19A7
:10786600317D7D000000262F292F2F280000262F8E
:10787600292F26000030784D456020000038380852
:10788600080808000008080808383800004F6F305C
:1078960018CCEEBB914F6F30186C76FBF9000000E8
:1078A6007B7B000000081C3622081C362222361C70
:1078B6000822361C08AA005500AA005500AA55AA97
:1078C60055AA55AA55DDFFAA77DDAAFF7700000065
:1078D600FFFF000000101010FFFF0000001414143A
:1078E600FFFF0000001010FFFF00FFFF001010F068
:1078F600F010F0F000141414FCFC0000001414F74F
:10790600F700FFFF000000FFFF00FFFF001414F464
:10791600F404FCFC0014141717101F1F0010101F8E
:107926001F101F1F001414141F1F0000001010103A
:10793600F0F00000000000001F1F101010101010C3
:107946001F1F101010101010F0F010101000000083
:10795600FFFF101010101010101010101010101043
:10796600FFFF101010000000FFFF1414140000FFAA
:10797600FF00FFFF1000001F1F101717140000FC68
:10798600FC04F4F41414141717101717141414F431
:10799600F404F4F4140000FFFF00F7F714141414B1
:1079A60014141414141414F7F700F7F71414141419
:1079B600171714141410101F1F101F1F101414145F
:1079C600F4F41414141010F0F010F0F01000001F6E
:1079D6001F101F1F100000001F1F141414000000AA
:1079E600FCFC1414140000F0F010F0F0101010FF5E
:1079F600FF10FFFF10141414FFFF141414101010BE
:107A06001F1F000000000000F0F0101010FFFFFF25
:107A1600FFFFFFFFFFF0F0F0F0F0F0F0F0FFFFFFE8
:107A2600FF0000000000000000FFFFFFFF0F0F0F28
:107A36000F0F0F0F0F387C446C386C4400FCFE2A85
:107A46002A3E1400007E7E020206060000027E7EAA
:107A5600027E7E020063775D4963630000387C44E2
:107A66007C3C04040080FE7E20203E1E00040602AC
:107A76007E7C06020099BDE7E7BD9900001C3E6BBF
:107A8600496B3E1C004C7E7301737E4C0030784A75
:107A96004F7D390000183C243C3C243C1898FC647B
:107AA6003C3E273D180000000000000000000000DA
:107AB60000000000000000000000000000000000C0
:107AC60000000000000000000000000000000000B0
:107AD60000000000000000000000000000000000A0
:107AE6000000000000000000000000000000000090
:107AF6000000000000000000000000000000000080
:107B0600000000000000000000000000000000006F
:107B1600000000000000000000000000000000005F
:107B2600000000000000000000000000000000004F
:107B36000000000000FFFFFFFFFFFFFFFFFFFFFF4A
:107B4600FFFFFFFFFFFFFFFFFFFFFFFFFFFFFFFF3F
:107B5600FFFFFFFFFFFFFFFFFFFFFFFFFFFFFFFF2F
:107B6600FFFFFFFFFFFFFFFFFFFFFFFFFFFFFFFF1F
:107B7600FFFFFFFFFFFFFFFFFFFFFFFFFFFFFFFF0F
:107B8600FFFFFFFFFFFFFFFFFFFFFFFFFFFFFFFFFF
:107B9600FFFFFFFFFFFFFFFFFFFFFFFFFFFFFFFFEF
:107BA600FFFFFFFFFFFFFFFFFFFFFFFFFFFFFFFFDF
:107BB600FFFFFFFFFFFFFFFFFFFFFFFFFFFFFFFFCF
:107BC600FFFFFFFFFFFFFFFFFFFFFFFFFFFFFFFFBF
:107BD600FFFF07FB0B0B0B0B0B0B0B0B0B0B0B0B1B
:107BE6000B0B0B0B0B0B0B0B0B8BE3FB0B0B0B0B97
:107BF6000B0B0B0B0B0B0BFB0B0B0B0B0B8B8B0BDF
:107C06000B0BCBE3FBFB030303030B0B0303030386
:107C16008383838303C3FB07FFFF8F770FDB8B779A
:107C26000FFFFFFFFFFFFFFFFFFFFFFFFFFFFFFF4E
:107C3600FFFFFFFFFFFFFFFFFFFFFFFFFFFFFFFF4E
:107C4600FFFFFFFFFFFFFFFFFFFFFFFFFFFFFFFF3E
:107C5600FFFF00FFFFFFFF3000000000FFFFFFFFF8
:107C66000000000000E3E3E3FBFFFFFFFFFFFF0070
:107C760000000000FFFFFFFF0000000000F1E080B1
:107C86000203070F3FFF0101010101FFFCF0C000E5
:107C960000030F3F7FFFFF00FFFFFFFFFEFEFEFE1C
:107CA600FFFFFFFFFFFFFFFFFFFFFFFFFFFFFFFFDE
:107CB600FFFFFFFFFFFFFFFFFFFFFFFFFFFFFFFFCE
:107CC600FFFFFFFFFFFFFFFFFFFFFFFFFFFFFFFFBE
:107CD600FFFF00FFFFFFFF0000000000FFFFFFFFA8
:107CE60000000000000F0F0F0F0F0F0F1F7FFF0088
:107CF60000000000FFFFFFFF0000000000FFFFFF85
:107D0600FEF8E080000002082080000F0F0F0F0F22
:107D16000C0000000001FF00FFBFFFFFFFFFFFFF99
:107D2600FFFFFFFFFFFFFFFFFFFFFFFFFFFFFFFF5D
:107D3600FFFFFFFFFF0F090B0F07071717170707AF
:107D460007272707070707070707070707F783C355
:107D5600D0D3F61D1D1D1D1D1C1C1C1C1D1D1D1D0F
:107D66001D1C1C1C1C1C1CFCFC02FEFEFEFEFFFE59
:107D7600FEFEFEFEFFFFFFFFFEFEFEFEFEFFFFFF16
:107D8600FF01FD1D1D1C1C1C1C1C1D1D1C1C1C1C80
:107D96001C1C1C1C1C1C0D04030000000000000021
:107DA600000000010101C1C1C1C1D1E10303030308
:107DB60083030507073B212121BA30212121BBFC82
:107DC600E0E0E0E0E0E0E0C0FE39BDBDB8FF39BD6F
:107DD600BD39FF20A9A921FE20A0A020FE21A929A6
:107DE60039FE21A9A939FEBFFF00FFFFFFFFFFFFF4
:107DF600FFFFFFFFFFFFFFFFFFFFFFFFFFFFFFFF8D
:107E0600FF1CFFE0A0A0A0A0FE2121A121FE2121B0
:107E16002121FE20B0A020FE31A9A820FE20A0A08E
:107E260020FE39BDBDB8FF39BDBD39FF20A9A9382F
:107E3600FF2121213177445454FF76545454FF676F
:107E4600535347FF73737777FF47474747FF4657B5
:107E56004746FF42575746FF44554444FF4455445E
:107E660044FF46775756FF77FF000F0303030303CC
:107E760003030303030303030303030303030303CC
:107E86000080FFFF77777777FF74747474FF64540C
:107E96005444FF46775546FF46777746FF66777523
:107EA60076FF47574747FF46574746FF4657577798
:107EB600FFC2C0C4C6EFCAEBEAFFEFEEEFEEFFEE7D
:107EC600EEEFAEFFCEEEEFEEFFC8E8E888FF88EAF9
:107ED600E888FF8CEAEB88FFCEEFEFEEFFC8E8E814
:107EE600E8FFC8E8E8E8FF88E9E9CDFF8BEFEFEFA8
:107EF600FF8FEFEFEFEF8FEF8FEFEF8FAF8BEFCFC0
:107F06008FEF8EFF88080808FF88080808FFCCEA6C
:107F1600EBE8FFCEEEEFEEFFCEEFEFEEFFCEEFEFAC
:107F2600EEFF88EAE888FF88EAE8C8FF8CEBEACE2D
:107F3600FFFFFFFFFF000000005C000C000C7C2828
:107F46007C7C447C241048285408000C00384400EB
:107F5600443800201008103810804000101010001F
:107F66004000201008384438007C006454484454CB
:107F7600281C107C4C542438542004740C28542893
:107F860008543800500080500010284428282844FF
:107F96002810045408384C5C7814787C54283844EB
:107FA600447C44387C54447C14043844347C107C2F
:107FB600007C0020403C7C106C7C40407C087C7C33
:107FC600047C7C447C7C14083844787C14684854CF
:107FD60024047C047C407C3C403C7C207C6C106C03
:107FE6001C601C64544C7C4400081020447C00082F
:097FF600040880808004080000EA
:020000040020DA
:08000000FFFFFFFFFFFFFFFF00
:020000040030CA
:0E000000000C1F1FFF8381FF0FC00FE00F4099
:00000001FF
